:020000040800F2
:1000000000500020290D0008CD0C0008D30C00087A
:10001000D90C0008DF0C0008E50C00080000000007
:10002000000000000000000000000000EB0C0008D1
:10003000F70C000800000000030D00080F0D000879
:10004000710D0008710D0008710D0008710D000898
:10005000710D0008710D0008710D0008710D000888
:10006000710D0008710D0008710D0008710D000878
:10007000710D0008710D0008710D0008710D000868
:10008000710D0008710D0008710D0008710D000858
:10009000710D0008710D0008710D0008710D000848
:1000A000710D0008710D0008710D0008710D000838
:1000B000710D0008710D0008710D0008710D000828
:1000C000710D0008710D0008710D0008710D000818
:1000D000710D0008710D0008710D0008710D000808
:1000E000710D0008710D0008710D0008000000007E
:1000F0000000000000000000000000000000000000
:0C01000000000000000000005FF808F1A3
:10010C0010B5054C237833B9044B13B10448AFF345
:10011C0000800123237010BD0C00002000000000A3
:10012C001C31000808B5034B1BB103490348AFF35E
:10013C00008008BD00000000100000201C310008E9
:10014C0080B586B002AF0346FB71FB7923F00F0339
:10015C00FB73FB791B01BB73FB7B43F00C03DBB222
:10016C003B72FB7B43F00803DBB27B72BB7B43F03F
:10017C000C03DBB2BB72BB7B43F00803DBB2FB723C
:10018C0007F108026423009304237E21034801F045
:10019C0035FA00BF1037BD4680BD00BF28000020D7
:1001AC0080B586B002AF0346FB71FB7923F00F03D9
:1001BC00FB73FB791B01BB73FB7B43F00D03DBB2C1
:1001CC003B72FB7B43F00903DBB27B72BB7B43F0DE
:1001DC000D03DBB2BB72BB7B43F00903DBB2FB72DA
:1001EC0007F108026423009304237E21034801F0E5
:1001FC0005FA00BF1037BD4680BD00BF28000020A7
:10020C0080B582B000AF8020FFF79AFF00237B609F
:10021C0005E02020FFF7C4FF7B6801337B607B681F
:10022C00452BF6DD00BF00BF0837BD4680BD80B54D
:10023C0082B000AF786039607B68002B03D07B689C
:10024C00012B05D009E03B6843F080033B6004E0E0
:10025C003B6843F0C0033B6000BF3B68DBB2184611
:10026C00FFF76EFF00BF0837BD4680BD80B500AFFD
:10027C00322000F0DBFD3020FFF762FF052000F09C
:10028C00D5FD3020FFF75CFF012000F0CFFD3020C2
:10029C00FFF756FF0A2000F0C9FD2020FFF750FFA2
:1002AC000A2000F0C3FD2820FFF74AFF012000F0D0
:1002BC00BDFD0820FFF744FF012000F0B7FD012031
:1002CC00FFF73EFF012000F0B1FD012000F0AEFD74
:1002DC000620FFF735FF012000F0A8FD0C20FFF7EA
:1002EC002FFF00BF80BD80B582B000AF786006E004
:1002FC007B685A1C7A601B781846FFF751FF7B68A5
:10030C001B78002BF4D100BF00BF0837BD4680BD61
:10031C0080B500AF012210210A4801F013F8002229
:10032C002021084801F00EF801224FF48071054895
:10033C0001F008F800224FF40071024801F002F8B5
:10034C0000BF80BD000C014080B483B000AF0346F9
:10035C000A46FB801346BB80FB88A3F13202074B95
:10036C001B685A63BB88A3F13202044B1B689A6367
:10037C0000BF0C37BD4680BC704700BF7401002025
:10038C0080B500AFFFF772FFFFF73AFF00210020A6
:10039C00FFF74DFF0548FFF7A6FF00210120FFF7EF
:1003AC0046FF0348FFF79FFF00BF80BD34310008B4
:1003BC004031000880B500AF00F0D6FC00F026F804
:1003CC0000F070FA00F002F900F0D0F900F01CFA1D
:1003DC0000F062F800F08EF800F0C2F800F046F978
:1003EC000021094802F042F90421074802F03EF9C5
:1003FC00FFF7C6FFFFF78CFF4FF47A714FF448708C
:10040C00FFF7A2FFF6E700BF7401002080B590B0A3
:10041C0000AF07F1180328220021184602F070FEE5
:10042C003B1D00221A605A609A60DA601A6101233F
:10043C00BB614FF48033FB6100233B620123BB6241
:10044C0002237B634FF48033BB634FF4E013FB63F5
:10045C0007F11803184601F0D7FB0346002B01D017
:10046C0000F0AAFA0F237B600223BB600023FB6021
:10047C004FF480633B6100237B613B1D02211846D6
:10048C0001F044FE0346002B01D000F095FA00BFAA
:10049C004037BD4680BD000080B500AF124B134AFB
:1004AC001A60114B124A5A600F4B00229A600E4B85
:1004BC000022DA600C4B4FF480421A610A4B002286
:1004CC005A61094B00229A61074B0022DA61064BF4
:1004DC0000221A62044800F04DFF0346002B01D0A5
:1004EC0000F06AFA00BF80BD2800002000540040D4
:1004FC00A086010080B500AF174B184A1A60164B46
:10050C004FF482725A60144B00229A60124B0022F4
:10051C00DA60114B00221A610F4B00225A610E4B0C
:10052C0000229A610C4B0822DA610B4B00221A62F2
:10053C00094B00225A62084B00229A62064B0A228F
:10054C00DA62054801F066FF0346002B01D000F08B
:10055C0033FA00BF80BD00BF7C000020003001409A
:10056C0080B500AF174B184A1A60164B4FF48272C5
:10057C005A60144B00229A60124B0022DA60114B25
:10058C0000221A610F4B00225A610E4B00229A6115
:10059C000C4B0022DA610B4B00221A62094B002231
:1005AC005A62084B00229A62064B0A22DA6205480C
:1005BC0001F030FF0346002B01D000F0FDF900BF25
:1005CC0080BD00BFD40000200038004080B586B04C
:1005DC0000AF07F1080300221A605A609A60DA60D3
:1005EC003B4600221A605A601E4B1F4A1A601D4B74
:1005FC0047225A601B4B00229A601A4B40F2E7329A
:10060C00DA60184B00221A61164B00225A61154B06
:10061C0000229A61134801F081FF0346002B01D0A0
:10062C0000F0CAF94FF48053BB6007F10803194678
:10063C000C4802F07BF90346002B01D000F0BCF90A
:10064C0000233B6000237B603B461946054802F0C3
:10065C00D5FC0346002B01D000F0AEF900BF1837D3
:10066C00BD4680BD2C010020002C014080B58EB011
:10067C0000AF07F1280300221A605A609A60DA6012
:10068C0007F1200300221A605A603B1D00221A60F9
:10069C005A609A60DA601A615A619A61324B4FF073
:1006AC0080421A60304B47225A602F4B00229A60CE
:1006BC002D4B40F2E732DA602B4B00221A612A4BA9
:1006CC0000229A61284801F029FF0346002B01D033
:1006DC0000F072F94FF48053BB6207F128031946FE
:1006EC00214802F023F90346002B01D000F064F9F5
:1006FC001D4801F062FF0346002B01D000F05CF9AD
:10070C0000233B6200237B6207F120031946164845
:10071C0002F074FC0346002B01D000F04DF960236D
:10072C007B600023BB600023FB6000237B613B1DCF
:10073C00002219460C4802F03BF80346002B01D06E
:10074C0000F03AF93B1D04221946074802F030F834
:10075C000346002B01D000F02FF9034800F080FA7B
:10076C0000BF3837BD4680BD7401002080B586B00F
:10077C0000AF07F1080300221A605A609A60DA6031
:10078C003B4600221A605A601D4B1E4A1A601C4BD5
:10079C0047225A601A4B00229A60194B40F2E732FA
:1007AC00DA60174B00221A61154B00229A6114482B
:1007BC0001F0B4FE0346002B01D000F0FDF84FF41D
:1007CC008053BB6007F1080319460D4802F0AEF8E0
:1007DC000346002B01D000F0EFF800233B60002310
:1007EC007B603B461946064802F008FC0346002B8A
:1007FC0001D000F0E1F800BF1837BD4680BD00BF46
:10080C00BC0100200004004080B586B000AF07F1A9
:10081C00080300221A605A609A60DA603B46002294
:10082C001A605A601D4B1E4A1A601C4B47225A60B4
:10083C001A4B00229A60194B40F2E732DA60174BE0
:10084C0000221A61154B00229A61144801F066FED1
:10085C000346002B01D000F0AFF84FF48053BB607F
:10086C0007F1080319460D4802F060F80346002B07
:10087C0001D000F0A1F800233B6000237B603B46D5
:10088C001946064802F0BAFB0346002B01D000F0D3
:10089C0093F800BF1837BD4680BD00BF040200208E
:1008AC000008004080B588B000AF07F110030022AB
:1008BC001A605A609A60DA603B4B9B693A4A43F083
:1008CC0010039361384B9B6903F01003FB60FB68CA
:1008DC00354B9B69344A43F020039361324B9B693F
:1008EC0003F02003BB60BB682F4B9B692E4A43F07F
:1008FC00040393612C4B9B6903F004037B607B68BE
:10090C00294B9B69284A43F008039361264B9B694A
:10091C0003F008033B603B6800224FF4005123486E
:10092C0000F010FD002240F63371214800F00AFD62
:10093C004FF400533B6101237B610023BB61022315
:10094C00FB6107F110031946184800F077FB40F6DD
:10095C0033733B6101237B610023BB610223FB6189
:10096C0007F110031946124800F068FB4FF4F853D6
:10097C003B6100237B610023BB6107F11003194627
:10098C000C4800F05BFB08233B6100237B610023D8
:10099C00BB6107F110031946054800F04FFB00BF7F
:1009AC002037BD4680BD00BF001002400010014042
:1009BC00000C01400008014080B400AF72B600BFCB
:1009CC00FEE7000080B485B000AF154B9B69144A5C
:1009DC0043F001039361124B9B6903F00103BB606D
:1009EC00BB680F4BDB690E4A43F08053D3610C4B51
:1009FC00DB6903F080537B607B680A4B5B68FB60B0
:100A0C00FB6823F0E063FB60FB6843F00073FB6062
:100A1C00044AFB68536000BF1437BD4680BC704766
:100A2C00001002400000014080B588B000AF786033
:100A3C0007F1100300221A605A609A60DA607B6832
:100A4C001B68154A934223D1144B9B69134A43F0FC
:100A5C0008039361114B9B6903F00803FB60FB686F
:100A6C00C0233B6112237B610323FB6107F110035D
:100A7C0019460B4800F0E2FA084BDB69074A43F4CD
:100A8C000013D361054BDB6903F40013BB60BB6837
:100A9C0000BF2037BD4680BD00540040001002400E
:100AAC00000C014080B58AB000AF786007F11803E4
:100ABC0000221A605A609A60DA607B681B68374AB9
:100ACC00934230D1364B9B69354A43F48053936142
:100ADC00334B9B6903F480537B617B69304B9B697F
:100AEC002F4A43F0040393612D4B9B6903F00403DD
:100AFC003B613B695023BB610023FB6100233B62DC
:100B0C0007F118031946274800F098FAA023BB6197
:100B1C000223FB6103237B6207F11803194621486A
:100B2C0000F08CFA36E07B681B681F4A934231D187
:100B3C001B4BDB691A4A43F48043D361184BDB69C6
:100B4C0003F48043FB60FB68154B9B69144A43F02C
:100B5C0008039361124B9B6903F00803BB60BB68ED
:100B6C004FF4A043BB610023FB6100233B6207F100
:100B7C00180319460D4800F061FA4FF42043BB618D
:100B8C000223FB6103237B6207F118031946074814
:100B9C0000F054FA00BF2837BD4680BD003001403C
:100BAC00001002400008014000380040000C0140D9
:100BBC0080B487B000AF78607B681B68244A93428E
:100BCC000CD1244B9B69234A43F400639361214B62
:100BDC009B6903F400637B617B6934E07B681B6871
:100BEC00B3F1804F0CD11B4BDB691A4A43F0010364
:100BFC00D361184BDB6903F001033B613B6922E0D5
:100C0C007B681B68144A93420CD1124BDB69114A66
:100C1C0043F00203D3610F4BDB6903F00203FB606B
:100C2C00FB6810E07B681B680C4A93420BD1094BA4
:100C3C00DB69084A43F00403D361064BDB6903F01C
:100C4C000403BB60BB6800BF1C37BD4680BC70474B
:100C5C00002C01400010024000040040000800403D
:100C6C0080B588B000AF786007F1100300221A60DD
:100C7C005A609A60DA607B681B68B3F1804F17D1B9
:100C8C000D4B9B690C4A43F0040393610A4B9B691F
:100C9C0003F00403FB60FB6803233B6102237B61CD
:100CAC000223FB6107F110031946044800F0C6F952
:100CBC0000BF2037BD4680BD001002400008014037
:100CCC0080B400AFFEE780B400AFFEE780B400AFA5
:100CDC00FEE780B400AFFEE780B400AFFEE780B45F
:100CEC0000AF00BFBD4680BC704780B400AF00BFF2
:100CFC00BD4680BC704780B400AF00BFBD4680BC11
:100D0C00704780B500AF00F075F800BF80BD80B4AF
:100D1C0000AF00BFBD4680BC704700000C480D49B9
:100D2C000D4A002302E0D458C4500433C4188C423A
:100D3C00F9D30A4A0A4C002301E013600432A242A0
:100D4C00FBD3FFF7E4FF02F0B7F9FFF733FB704773
:100D5C00000000200C000020803100080C00002056
:100D6C0050020020FEE7000080B500AF084B1B6866
:100D7C00074A43F010031360032000F02BF90F20F7
:100D8C0000F008F8FFF71EFE0023184680BD00BFD8
:100D9C000020024080B582B000AF7860124B1A6818
:100DAC00124B1B7819464FF47A73B3FBF1F3B2FB79
:100DBC00F3F3184600F035F90346002B01D001235C
:100DCC000EE07B680F2B0AD8002279684FF0FF30B9
:100DDC0000F00BF9064A7B681360002300E0012346
:100DEC0018460837BD4680BD0000002008000020D2
:100DFC000400002080B400AF054B1B781A46054B4D
:100E0C001B681344034A136000BFBD4680BC704787
:100E1C00080000204C02002080B400AF024B1B687D
:100E2C001846BD4680BC70474C02002080B584B08B
:100E3C0000AF7860FFF7F0FFB8607B68FB60FB6881
:100E4C00B3F1FF3F05D00A4B1B781A46FB681344DD
:100E5C00FB6000BFFFF7E0FF0246BB68D31AFA68DD
:100E6C009A42F7D800BF00BF1037BD4680BD00BF07
:100E7C000800002080B485B000AF78607B6803F078
:100E8C000703FB600C4BDB68BB60BA684FF6FF03D3
:100E9C001340BB60FB681A02BB68134343F0BF638B
:100EAC0043F40033BB60044ABB68D36000BF143703
:100EBC00BD4680BC704700BF00ED00E080B400AFC1
:100ECC00044BDB681B0A03F007031846BD4680BCC5
:100EDC00704700BF00ED00E080B483B000AF034664
:100EEC003960FB7197F90730002B0ADB3B68DAB2EB
:100EFC000C4997F907301201D2B20B4483F8002346
:100F0C000AE03B68DAB20849FB7903F00F03043BB3
:100F1C001201D2B20B441A7600BF0C37BD4680BC0E
:100F2C00704700BF00E100E000ED00E080B489B044
:100F3C0000AFF860B9607A60FB6803F00703FB61EF
:100F4C00FB69C3F10703042B28BF0423BB61FB69B6
:100F5C000433062B02D9FB69033B00E000237B61C1
:100F6C004FF0FF32BB6902FA03F3DA43BB681A4055
:100F7C007B699A404FF0FF317B6901FA03F3D94347
:100F8C007B680B40134318462437BD4680BC704722
:100F9C0080B582B000AF78607B68013BB3F1807F95
:100FAC0001D301230FE00A4A7B68013B53600F21F8
:100FBC004FF0FF30FFF790FF054B00229A60044B77
:100FCC0007221A60002318460837BD4680BD00BFB3
:100FDC0010E000E080B582B000AF78607868FFF771
:100FEC0049FF00BF0837BD4680BD80B586B000AF55
:100FFC000346B9607A60FB7300237B61FFF75EFFE9
:10100C0078617A68B9687869FFF790FF024697F9BA
:10101C000F3011461846FFF75FFF00BF1837BD466B
:10102C0080BD80B582B000AF78607868FFF7B0FF04
:10103C00034618460837BD4680BD000080B48BB00F
:10104C0000AF7860396000237B6200233B6269E16A
:10105C0001227B6A02FA03F3FB613B681B68FA69A5
:10106C001340BB61BA69FB699A4240F058813B68F6
:10107C005B689A4A93425ED0984A934275D8984AD4
:10108C00934258D0964A93426FD8964A934252D084
:10109C00944A934269D8944A93424CD0924A9342D0
:1010AC0063D8924A934246D0904A93425DD8122B11
:1010BC002AD8122B59D801A252F823F04311000858
:1010CC001D1100082F11000871110008771100087C
:1010DC0077110008771100087711000877110008C4
:1010EC0077110008771100087711000877110008B4
:1010FC0077110008771100087711000877110008A4
:10110C002511000839110008794A934213D02CE0BC
:10111C003B68DB683B6229E03B68DB6804333B627D
:10112C0024E03B68DB6808333B621FE03B68DB680C
:10113C000C333B621AE03B689B68002B02D1042302
:10114C003B6213E03B689B68012B05D108233B6293
:10115C007B68FA691A6109E008233B627B68FA69CB
:10116C005A6103E000233B6200E000BFBB69FF2B28
:10117C0001D87B6801E07B6804337B61BB69FF2B82
:10118C0002D87B6A9B0002E07B6A083B9B003B61B8
:10119C007B691A680F213B6901FA03F3DB431A40A0
:1011AC00396A3B6901FA03F31A437B691A603B689D
:1011BC005B6803F08053002B00F0B1804D4B9B69B2
:1011CC004C4A43F0010393614A4B9B6903F00103C2
:1011DC00BB60BB68484A7B6A9B08023352F82330D9
:1011EC00FB607B6A03F003039B000F2202FA03F3FC
:1011FC00DB43FA681340FB607B68404A934213D090
:10120C007B683F4A93420DD07B683E4A934207D09D
:10121C007B683D4A934201D1032306E0042304E09A
:10122C00022302E0012300E000237A6A02F00302A9
:10123C0092009340FA681343FB602F497B6A9B082A
:10124C000233FA6841F823203B685B6803F480336F
:10125C00002B06D02D4B1A682C49BB6913430B602D
:10126C0006E02A4B1A68BB69DB43284913400B6024
:10127C003B685B6803F40033002B06D0234B5A68A1
:10128C002249BB6913434B6006E0204B5A68BB698B
:10129C00DB431E4913404B603B685B6803F48013CF
:1012AC00002B06D0194B9A681849BB6913438B6005
:1012BC0006E0164B9A68BB69DB43144913408B60FC
:1012CC003B685B6803F40013002B21D00F4BDA68EA
:1012DC000E49BB691343CB6021E000BF0000321004
:1012EC00000031100000221000002110000012102C
:1012FC0000001110001002400000014000080140E5
:10130C00000C014000100140001401400004014099
:10131C000B4BDA68BB69DB4309491340CB607B6A32
:10132C0001337B623B681A687B6A22FA03F3002B59
:10133C007FF48EAE00BF00BF2C37BD4680BC70471B
:10134C000004014080B483B000AF78600B467B8012
:10135C0013467B707B78002B03D07A887B681A61EC
:10136C0003E07B881A047B681A6100BF0C37BD460A
:10137C0080BC704780B584B000AF78607B68002B70
:10138C0001D101232BE17B6893F83D30DBB2002BBC
:10139C0006D17B68002283F83C207868FFF744FB79
:1013AC007B68242283F83D207B681B681A687B6865
:1013BC001B6822F001021A607B681B681A687B6844
:1013CC001B6842F400421A607B681B681A687B68D1
:1013DC001B6822F400421A6000F0EAFFF8607B6898
:1013EC005B68814A934207D8FB68804A934294BF5A
:1013FC0001230023DBB206E0FB687D4A934294BFD5
:10140C0001230023DBB2002B01D00123E7E0FB68B2
:10141C00784AA2FB03239B0CBB607B681B685B6850
:10142C0023F03F017B681B68BA680A435A607B68EB
:10143C001B681B6A23F03F017B685B686A4A934216
:10144C0002D8BB68013309E0BB684FF4967202FB0B
:10145C0003F3694AA2FB03239B0901337A681268E0
:10146C000B4313627B681B68DB6923F44F4222F049
:10147C00FF027B685B685C498B4219D8FB68591E7C
:10148C007B685B685B00B1FBF3F3591C40F6FC73A3
:10149C000B40002B0AD0FB68591E7B685B685B0015
:1014AC00B1FBF3F30133C3F30B0351E004234FE01F
:1014BC007B689B68002B11D1FB68581E7B685968B0
:1014CC000B465B000B44B0FBF3F30133C3F30B038C
:1014DC00002B0CBF01230023DBB212E0FB68581E6B
:1014EC007B6859680B469B000B4499000B44B0FB7E
:1014FC00F3F30133C3F30B03002B0CBF01230023C5
:10150C00DBB2002B01D0012322E07B689B68002B0F
:10151C000ED1FB68581E7B6859680B465B000B4468
:10152C00B0FBF3F30133C3F30B0343F400430FE0BD
:10153C00FB68581E7B6859680B469B000B4499004E
:10154C000B44B0FBF3F30133C3F30B0343F44043FD
:10155C00796809681343CB617B681B681B6823F0AF
:10156C00C0017B68DA697B681B6A1A437B681B685D
:10157C000A431A607B681B689B6823F4034323F0BF
:10158C00FF037A6811697A68D26811437A68126825
:10159C000B4393607B681B68DB6823F0FF017B685F
:1015AC005A697B689B691A437B681B680A43DA603B
:1015BC007B681B681A687B681B6842F001021A6022
:1015CC007B6800221A647B68202283F83D207B68AC
:1015DC0000221A637B68002283F83E200023184601
:1015EC001037BD4680BD00BFA08601007F841E0061
:1015FC00FF083D0083DE1B43D34D621080B588B0DD
:10160C0002AFF8607A601A460B467B8113463B8129
:10161C00FFF702FC7861FB6893F83D30DBB2202BBE
:10162C0040F0E0807B690093192301227049F8682F
:10163C0000F064F90346002B01D00223D3E0FB68D1
:10164C0093F83C30012B01D10223CCE0FB68012242
:10165C0083F83C20FB681B681B6803F00103012B1B
:10166C0007D0FB681B681A68FB681B6842F0010214
:10167C001A60FB681B681A68FB681B6822F400621E
:10168C001A60FB68212283F83D20FB68102283F846
:10169C003E20FB6800221A64FB687A685A62FB6879
:1016AC003A895A85FB685B8D9AB2FB681A85FB6890
:1016BC00504ADA6279897B693A6AF86800F09CF8DA
:1016CC000346002B01D001238DE000233B61FB6816
:1016DC001B685B693B61FB681B689B693B613B69F1
:1016EC0066E07A69396AF86800F0DEF90346002B87
:1016FC000DD0FB681B6C042B07D1FB681B681A68A8
:10170C00FB681B6842F400721A6001236BE0FB68F3
:10171C005B6A1A78FB681B681A61FB685B6A5A1C67
:10172C00FB685A62FB685B8D9BB2013B9AB2FB680B
:10173C005A85FB681B8D013B9AB2FB681A85FB68C6
:10174C001B685B6903F00403042B1BD1FB681B8D26
:10175C00002B17D0FB685B6A1A78FB681B681A6150
:10176C00FB685B6A5A1CFB685A62FB685B8D9BB218
:10177C00013B9AB2FB685A85FB681B8D013B9AB200
:10178C00FB681A857A69396AF86800F0CEF9034665
:10179C00002B0DD0FB681B6C042B07D1FB681B685E
:1017AC001A68FB681B6842F400721A6001231AE085
:1017BC00FB681B8D002B94D1FB681B681A68FB68B7
:1017CC001B6842F400721A60FB68202283F83D20EB
:1017DC00FB68002283F83E20FB68002283F83C2043
:1017EC00002300E0022318461837BD4680BD00BF19
:1017FC00020010000000FFFF80B588B002AFF86057
:10180C007A603B600B467B81FB68DB6A7B617B69A2
:10181C00082B06D07B69012B03D07B6913F5803F25
:10182C0008D1FB681B681A68FB681B6842F480725D
:10183C001A600BE0FB681B6B122B07D1FB681B6853
:10184C001A68FB681B6842F480721A603B6800934C
:10185C007B6800224FF00111F86800F04FF8034646
:10186C00002B0DD0FB681B681B6803F48073B3F569
:10187C00807F03D1FB684FF400721A64032335E0B8
:10188C00FB681B69B3F5804F08D17B89DBB21A4624
:10189C00FB681B6802F0FE021A611BE07B89DB11FE
:1018AC00DBB203F00603DBB263F00F03DAB2FB68C2
:1018BC001B681A613B687A680E49F86800F075F885
:1018CC000346002B01D0012310E07B89DAB2FB68C0
:1018DC001B681A613B687A680749F86800F065F87C
:1018EC000346002B01D0012300E0002318461837D3
:1018FC00BD4680BD080001000200010080B584B027
:10190C0000AFF860B9603B601346FB7125E03B68A3
:10191C00B3F1FF3F21D0FFF77FFA0246BB69D31A20
:10192C003A689A4202D33B68002B16D1FB6800221E
:10193C001A63FB68202283F83D20FB68002283F8A1
:10194C003E20FB681B6C43F02002FB681A64FB68AA
:10195C00002283F83C20012323E0BB681B0CDBB284
:10196C00012B0DD1FB681B685B69DA43BB68134024
:10197C009BB2002B0CBF01230023DBB21A460CE0F8
:10198C00FB681B689B69DA43BB6813409BB2002B56
:10199C000CBF01230023DBB21A46FB799A42B6D066
:1019AC00002318461037BD4680BD80B584B000AF0B
:1019BC00F860B9607A603B6051E0FB681B685B695A
:1019CC0003F48063B3F5806F23D1FB681B681A683E
:1019DC00FB681B6842F400721A60FB681B686FF4AA
:1019EC0080625A61FB6800221A63FB68202283F82C
:1019FC003D20FB68002283F83E20FB681B6C43F003
:101A0C000402FB681A64FB68002283F83C20012363
:101A1C0046E07B68B3F1FF3F21D0FFF7FDF90246AA
:101A2C003B68D31A7A689A4202D37B68002B16D192
:101A3C00FB6800221A63FB68202283F83D20FB68B8
:101A4C00002283F83E20FB681B6C43F02002FB68ED
:101A5C001A64FB68002283F83C20012320E0BB6859
:101A6C001B0CDBB2012B0CD1FB681B685B69DA43E6
:101A7C00BB6813409BB2002B14BF01230023DBB2C5
:101A8C000BE0FB681B689B69DA43BB6813409BB295
:101A9C00002B14BF01230023DBB2002B8DD10023BC
:101AAC0018461037BD4680BD80B584B000AFF860D5
:101ABC00B9607A602DE0F86800F078F80346002BE6
:101ACC0001D001232DE0BB68B3F1FF3F21D0FFF71C
:101ADC00A3F902467B68D31ABA689A4202D3BB6850
:101AEC00002B16D1FB6800221A63FB68202283F8B6
:101AFC003D20FB68002283F83E20FB681B6C43F002
:101B0C002002FB681A64FB68002283F83C20012346
:101B1C0007E0FB681B685B6903F08003802BCAD16C
:101B2C00002318461037BD4680BD80B584B000AF89
:101B3C00F860B9607A602DE0F86800F037F8034679
:101B4C00002B01D001232DE0BB68B3F1FF3F21D066
:101B5C00FFF762F902467B68D31ABA689A4202D33D
:101B6C00BB68002B16D1FB6800221A63FB6820228D
:101B7C0083F83D20FB68002283F83E20FB681B6C39
:101B8C0043F02002FB681A64FB68002283F83C20B7
:101B9C00012307E0FB681B685B6903F00403042B5B
:101BAC00CAD1002318461037BD4680BD80B483B01F
:101BBC0000AF78607B681B685B6903F48063B3F5E6
:101BCC00806F1BD17B681B686FF480625A617B68E5
:101BDC0000221A637B68202283F83D207B68002258
:101BEC0083F83E207B681B6C43F004027B681A640C
:101BFC007B68002283F83C20012300E00023184678
:101C0C000C37BD4680BC704780B586B000AF78609D
:101C1C007B68002B01D1012372E27B681B6803F007
:101C2C000103002B00F08780924B5B6803F00C03E0
:101C3C00042B0CD08F4B5B6803F00C03082B12D1D8
:101C4C008C4B5B6803F48033B3F5803F0BD1894B2D
:101C5C001B6803F40033002B6CD07B685B68002B93
:101C6C0068D101234CE27B685B68B3F5803F06D1F9
:101C7C00804B1B687F4A43F4803313602EE07B68F3
:101C8C005B68002B0CD17B4B1B687A4A23F48033A6
:101C9C001360784B1B68774A23F4802313601DE094
:101CAC007B685B68B3F5A02F0CD1724B1B68714A33
:101CBC0043F4802313606F4B1B686E4A43F48033EC
:101CCC0013600BE06B4B1B686A4A23F48033136080
:101CDC00684B1B68674A23F4802313607B685B683E
:101CEC00002B13D0FFF798F8386108E0FFF794F851
:101CFC0002463B69D31A642B01D9032300E25D4BE6
:101D0C001B6803F40033002BF0D014E0FFF784F8C9
:101D1C00386108E0FFF780F802463B69D31A642B60
:101D2C0001D90323ECE1534B1B6803F40033002B64
:101D3C00F0D100E000BF7B681B6803F00203002BAE
:101D4C0063D04C4B5B6803F00C03002B0BD0494B5E
:101D5C005B6803F00C03082B1CD1464B5B6803F447
:101D6C008033002B16D1434B1B6803F00203002B6E
:101D7C0005D07B681B69012B01D00123C0E13D4BD1
:101D8C001B6823F0F8027B685B69DB00394913435D
:101D9C000B603AE07B681B69002B20D0364B01228C
:101DAC001A60FFF739F8386108E0FFF735F802469A
:101DBC003B69D31A022B01D90323A1E12D4B1B68DC
:101DCC0003F00203002BF0D02A4B1B6823F0F8021F
:101DDC007B685B69DB00274913430B6015E0264BDE
:101DEC0000221A60FFF718F8386108E0FFF714F8C2
:101DFC0002463B69D31A022B01D9032380E11D4B08
:101E0C001B6803F00203002BF0D17B681B6803F006
:101E1C000803002B3AD07B689B69002B19D0174B19
:101E2C0001221A60FEF7F8FF386108E0FEF7F4FFB4
:101E3C0002463B69D31A022B01D9032360E10D4BF7
:101E4C005B6A03F00203002BF0D0012000F0C4FA0F
:101E5C001CE00A4B00221A60FEF7DEFF38610FE02F
:101E6C00FEF7DAFF02463B69D31A022B08D903238B
:101E7C0046E100BF00100240000042428004424292
:101E8C00924B5B6A03F00203002BE9D17B681B6861
:101E9C0003F00403002B00F0A6800023FB758B4B92
:101EAC00DB6903F08053002B0DD1884BDB69874A2B
:101EBC0043F08053D361854BDB6903F08053BB60E7
:101ECC00BB680123FB75824B1B6803F48073002BEA
:101EDC0018D17F4B1B687E4A43F480731360FEF766
:101EEC009BFF386108E0FEF797FF02463B69D31A67
:101EFC00642B01D9032303E1754B1B6803F4807336
:101F0C00002BF0D07B68DB68012B06D16F4B1B6A72
:101F1C006E4A43F0010313622DE07B68DB68002BF3
:101F2C000CD16A4B1B6A694A23F001031362674B9D
:101F3C001B6A664A23F0040313621CE07B68DB68AF
:101F4C00052B0CD1614B1B6A604A43F004031362EE
:101F5C005E4B1B6A5D4A43F0010313620BE05B4B63
:101F6C001B6A5A4A23F001031362584B1B6A574AE7
:101F7C0023F0040313627B68DB68002B15D0FEF79B
:101F8C004BFF38610AE0FEF747FF02463B69D31A64
:101F9C0041F28832934201D90323B1E04B4B1B6AC7
:101FAC0003F00203002BEED014E0FEF735FF38618E
:101FBC000AE0FEF731FF02463B69D31A41F2883240
:101FCC00934201D903239BE0404B1B6A03F00203AD
:101FDC00002BEED1FB7D012B05D13C4BDB693B4A41
:101FEC0023F08053D3617B68DB69002B00F0878082
:101FFC00364B5B6803F00C03082B61D07B68DB6904
:10200C00022B46D1334B00221A60FEF705FF3861D4
:10201C0008E0FEF701FF02463B69D31A022B01D9F7
:10202C0003236DE0294B1B6803F00073002BF0D1E8
:10203C007B681B6AB3F5803F08D1244B5B6823F4A3
:10204C0000327B689B68214913434B601F4B5B68D4
:10205C0023F474127B68196A7B685B6A0B431B4917
:10206C0013434B601B4B01221A60FEF7D5FE3861FF
:10207C0008E0FEF7D1FE02463B69D31A022B01D9C8
:10208C0003233DE0114B1B6803F00073002BF0D0D1
:10209C0035E0104B00221A60FEF7BEFE386108E0F6
:1020AC00FEF7BAFE02463B69D31A022B01D9032371
:1020BC0026E0064B1B6803F00073002BF0D11EE0EA
:1020CC007B68DB69012B07D1012319E0001002406A
:1020DC0000700040600042420B4B5B68FB60FB6889
:1020EC0003F480327B681B6A9A4206D1FB6803F4C6
:1020FC0070127B685B6A9A4201D0012300E00023D6
:10210C0018461837BD4680BD0010024080B584B01B
:10211C0000AF786039607B68002B01D10123D0E0DF
:10212C006A4B1B6803F007033A689A4210D9674B55
:10213C001B6823F0070265493B6813430B60634B34
:10214C001B6803F007033A689A4201D00123B8E0F8
:10215C007B681B6803F00203002B20D07B681B6894
:10216C0003F00403002B05D0594B5B68584A43F429
:10217C00E06353607B681B6803F00803002B05D0F9
:10218C00534B5B68524A43F460535360504B5B684B
:10219C0023F0F0027B689B684D4913434B607B68CE
:1021AC001B6803F00103002B40D07B685B68012B9C
:1021BC0007D1474B1B6803F40033002B15D10123C7
:1021CC007FE07B685B68022B07D1414B1B6803F0F7
:1021DC000073002B09D1012373E03D4B1B6803F006
:1021EC000203002B01D101236BE0394B5B6823F018
:1021FC0003027B685B68364913434B60FEF70CFEA9
:10220C00F8600AE0FEF708FE0246FB68D31A41F2BA
:10221C008832934201D9032353E02D4B5B6803F0C2
:10222C000C027B685B689B009A42EBD1274B1B68C6
:10223C0003F007033A689A4210D2244B1B6823F030
:10224C00070222493B6813430B60204B1B6803F0C9
:10225C0007033A689A4201D0012332E07B681B687D
:10226C0003F00403002B08D0194B5B6823F4E062E5
:10227C007B68DB68164913434B607B681B6803F073
:10228C000803002B09D0124B5B6823F460527B6867
:10229C001B69DB000E4913434B6000F021F802462A
:1022AC000B4B5B681B0903F00F030A49CB5C22FA4A
:1022BC0003F3094A1360094B1B681846FEF76AFDC5
:1022CC00002318461037BD4680BD00BF00200240D9
:1022DC0000100240603100080000002004000020C3
:1022EC0090B48AB000AF294B3C1D0FCB84E80F0093
:1022FC0040F201233B800023FB610023BB610023E0
:10230C007B6200237B6100233B62214B5B68FB619A
:10231C00FB6903F00C03042B02D0082B03D02BE039
:10232C001C4B3B622BE0FB699B0C03F00F03283327
:10233C003B4413F8243C7B61FB6903F48033002B92
:10234C0012D0134B5B685B0C03F0010328333B4446
:10235C0013F8283CBB617B690E4A03FB02F2BB6994
:10236C00B2FBF3F37B6204E07B690B4A02FB03F3E1
:10237C007B627B6A3B6202E0064B3B6200BF3B6ABE
:10238C0018462837BD4690BC704700BF5031000836
:10239C000010024000127A0000093D0080B400AF2A
:1023AC00024B1B681846BD4680BC704700000020DD
:1023BC0080B500AFFFF7F2FF0246054B5B681B0AC6
:1023CC0003F007030349CB5C22FA03F3184680BDE4
:1023DC00001002407031000880B485B000AF786006
:1023EC000A4B1B680A4AA2FB03235B0A7A6802FBAE
:1023FC0003F3FB6000BFFB685A1EFA60002BF9D197
:10240C0000BF00BF1437BD4680BC704700000020E1
:10241C00D34D621080B582B000AF78607B68002B22
:10242C0001D1012376E07B685B6A002B08D17B68C5
:10243C005B68B3F5827F09D07B680022DA6105E026
:10244C007B6800221A617B6800225A617B6800223B
:10245C009A627B6893F85130DBB2002B06D17B6813
:10246C00002283F850207868FEF71CFB7B68022260
:10247C0083F851207B681B681A687B681B6822F004
:10248C0040021A607B685B6803F482727B689B680D
:10249C0003F404431A437B68DB6803F400631A43B8
:1024AC007B681B6903F002031A437B685B6903F0CA
:1024BC0001031A437B689B6903F400731A437B681E
:1024CC00DB6903F038031A437B681B6A03F0800353
:1024DC0042EA03017B689B6A03F400527B681B6829
:1024EC000A431A607B689B691A0C7B681B6802F0B4
:1024FC0004025A607B681B68DA697B681B6822F4EB
:10250C000062DA617B6800225A657B68012283F8DD
:10251C005120002318460837BD4680BD80B582B0D7
:10252C0000AF78607B68002B01D1012341E07B6810
:10253C0093F83D30DBB2002B06D17B68002283F888
:10254C003C207868FEF734FB7B68022283F83D2040
:10255C007B681A687B6804331946104600F0AAFAA7
:10256C007B68012283F846207B68012283F83E2099
:10257C007B68012283F83F207B68012283F840208E
:10258C007B68012283F841207B68012283F842207A
:10259C007B68012283F843207B68012283F8442066
:1025AC007B68012283F845207B68012283F83D205B
:1025BC00002318460837BD4680BD80B582B000AFF9
:1025CC0078607B68002B01D1012341E07B6893F894
:1025DC003D30DBB2002B06D17B68002283F83C2017
:1025EC00786800F039F87B68022283F83D207B681C
:1025FC001A687B6804331946104600F05BFA7B6856
:10260C00012283F846207B68012283F83E207B68F8
:10261C00012283F83F207B68012283F840207B68ED
:10262C00012283F841207B68012283F842207B68D9
:10263C00012283F843207B68012283F844207B68C5
:10264C00012283F845207B68012283F83D2000237A
:10265C0018460837BD4680BD80B483B000AF7860A3
:10266C0000BF0C37BD4680BC7047000080B584B0FD
:10267C0000AF786039603B68002B09D17B6893F818
:10268C003E30DBB2012B14BF01230023DBB222E06E
:10269C003B68042B09D17B6893F83F30DBB2012BEC
:1026AC0014BF01230023DBB215E03B68082B09D1D2
:1026BC007B6893F84030DBB2012B14BF012300235D
:1026CC00DBB208E07B6893F84130DBB2012B14BF1E
:1026DC0001230023DBB2002B01D001235EE03B6819
:1026EC00002B04D17B68022283F83E2013E03B6868
:1026FC00042B04D17B68022283F83F200BE03B685B
:10270C00082B04D17B68022283F8402003E07B680D
:10271C00022283F841207B681B6801223968184625
:10272C0000F048FC7B681B681E4A934207D17B680B
:10273C001B685A6C7B681B6842F400425A647B68C5
:10274C001B68184A93420ED07B681B68B3F1804F0C
:10275C0009D07B681B68144A934204D07B681B68C1
:10276C00124A934211D17B681B689B6803F00703E4
:10277C00FB60FB68062B10D07B681B681A687B68B3
:10278C001B6842F001021A6007E07B681B681A683C
:10279C007B681B6842F001021A6000231846103750
:1027AC00BD4680BD002C01400004004000080040E4
:1027BC0080B584B000AFF860B9607A60FB6893F8BC
:1027CC003C30012B01D10223ACE0FB68012283F8E1
:1027DC003C207B680C2B00F29F8001A252F823F066
:1027EC00212800082529000825290008252900088A
:1027FC00612800082529000825290008252900083A
:10280C00A3280008252900082529000825290008E7
:10281C00E3280008FB681B68B968184600F0ACF99F
:10282C00FB681B689A69FB681B6842F008029A6196
:10283C00FB681B689A69FB681B6822F004029A61AA
:10284C00FB681B689969BB681A69FB681B680A43BB
:10285C009A6162E0FB681B68B968184600F0F2F9EF
:10286C00FB681B689A69FB681B6842F400629A61FA
:10287C00FB681B689A69FB681B6822F480629A618A
:10288C00FB681B689969BB681B691A02FB681B68AB
:10289C000A439A6141E0FB681B68B968184600F06E
:1028AC003BFAFB681B68DA69FB681B6842F008029C
:1028BC00DA61FB681B68DA69FB681B6822F00402AA
:1028CC00DA61FB681B68D969BB681A69FB681B680D
:1028DC000A43DA6121E0FB681B68B968184600F00E
:1028EC0085FAFB681B68DA69FB681B6842F40062B6
:1028FC00DA61FB681B68DA69FB681B6822F480628A
:10290C00DA61FB681B68D969BB681B691A02FB6832
:10291C001B680A43DA6100E000BFFB68002283F801
:10292C003C20002318461037BD4680BD80B584B0CE
:10293C0000AF786039607B6893F83C30012B01D193
:10294C000223B3E07B68012283F83C207B680222DF
:10295C0083F83D207B681B689B68FB60FB6823F059
:10296C007703FB60FB6823F47F43FB607B681B6889
:10297C00FA689A603B681B68B3F5005F3ED0B3F50C
:10298C00005F00F28780B3F5805F00F08580B3F5BF
:10299C00805F7FD8702B1AD0702B7BD8602B50D0D7
:1029AC00602B77D8502B3CD0502B73D8402B58D061
:1029BC00402B6FD8302B64D0302B6BD8202B60D0B1
:1029CC00202B67D8002B5CD0102B5AD062E07B6890
:1029DC0018683B6899683B685A683B68DB6800F08C
:1029EC00CAFA7B681B689B68FB60FB6843F0770343
:1029FC00FB607B681B68FA689A604EE07B6818681D
:102A0C003B6899683B685A683B68DB6800F0B3FA2E
:102A1C007B681B689A687B681B6842F480429A60EA
:102A2C003BE07B6818683B6859683B68DB681A4672
:102A3C0000F02AFA7B681B685021184600F081FAD6
:102A4C002BE07B6818683B6859683B68DB681A4662
:102A5C0000F048FA7B681B686021184600F071FA98
:102A6C001BE07B6818683B6859683B68DB681A4652
:102A7C0000F00AFA7B681B684021184600F061FAE6
:102A8C000BE07B681A683B681B681946104600F01F
:102A9C0058FA02E000BF00E000BF7B68012283F817
:102AAC003D207B68002283F83C2000231846103719
:102ABC00BD4680BD80B485B000AF786039607B685E
:102ACC001B68FB607B68294A93420BD07B68B3F18F
:102ADC00804F07D07B68264A934203D07B68254AF7
:102AEC00934208D1FB6823F07003FB603B685B6882
:102AFC00FA681343FB607B681C4A93420BD07B68DB
:102B0C00B3F1804F07D07B68194A934203D07B689E
:102B1C00184A934208D1FB6823F44073FB603B686E
:102B2C00DB68FA681343FB60FB6823F080023B68A8
:102B3C005B691343FB607B68FA681A603B689A68B0
:102B4C007B68DA623B681A687B689A627B68074A22
:102B5C00934203D13B681A697B681A637B68012234
:102B6C005A6100BF1437BD4680BC7047002C014031
:102B7C00000400400008004080B487B000AF7860CB
:102B8C0039607B681B6A23F001027B681A627B68E0
:102B9C001B6A7B617B685B683B617B689B69FB6044
:102BAC00FB6823F07003FB60FB6823F00303FB60FE
:102BBC003B681B68FA681343FB607B6923F00203D4
:102BCC007B613B689B687A6913437B617B681C4A19
:102BDC0093420CD17B6923F008037B613B68DB6873
:102BEC007A6913437B617B6923F004037B617B6807
:102BFC00134A934211D13B6923F480733B613B69C7
:102C0C0023F400733B613B685B693A6913433B6196
:102C1C003B689B693A6913433B617B683A695A602C
:102C2C007B68FA689A613B685A687B685A637B6870
:102C3C007A691A6200BF1C37BD4680BC704700BF62
:102C4C00002C014080B487B000AF786039607B689D
:102C5C001B6A23F010027B681A627B681B6A7B611B
:102C6C007B685B683B617B689B69FB60FB6823F45A
:102C7C00E043FB60FB6823F44073FB603B681B681C
:102C8C001B02FA681343FB607B6923F020037B6112
:102C9C003B689B681B017A6913437B617B681D4A07
:102CAC0093420DD17B6923F080037B613B68DB6829
:102CBC001B017A6913437B617B6923F040037B61C1
:102CCC007B68144A934213D13B6923F480633B61C4
:102CDC003B6923F400633B613B685B699B003A6989
:102CEC0013433B613B689B699B003A6913433B610F
:102CFC007B683A695A607B68FA689A613B685A68E3
:102D0C007B689A637B687A691A6200BF1C37BD4680
:102D1C0080BC7047002C014080B487B000AF786055
:102D2C0039607B681B6A23F480727B681A627B684B
:102D3C001B6A7B617B685B683B617B68DB69FB6062
:102D4C00FB6823F07003FB60FB6823F00303FB605C
:102D5C003B681B68FA681343FB607B6923F40073C0
:102D6C007B613B689B681B027A6913437B617B68C0
:102D7C001D4A93420DD17B6923F400637B613B6850
:102D8C00DB681B027A6913437B617B6923F48063E4
:102D9C007B617B68144A934213D13B6923F48053C3
:102DAC003B613B6923F400533B613B685B691B014E
:102DBC003A6913433B613B689B691B013A691343B6
:102DCC003B617B683A695A607B68FA68DA613B68F8
:102DDC005A687B68DA637B687A691A6200BF1C37B1
:102DEC00BD4680BC704700BF002C014080B487B04A
:102DFC0000AF786039607B681B6A23F480527B6873
:102E0C001A627B681B6A3B617B685B687B617B68D1
:102E1C00DB69FB60FB6823F4E043FB60FB6823F495
:102E2C004073FB603B681B681B02FA681343FB6032
:102E3C003B6923F400533B613B689B681B033A6975
:102E4C0013433B617B680F4A934209D17B6923F49E
:102E5C0080437B613B685B699B017A6913437B61AF
:102E6C007B687A695A607B68FA68DA613B685A68F1
:102E7C007B681A647B683A691A6200BF1C37BD46CE
:102E8C0080BC7047002C014080B487B000AFF86064
:102E9C00B9607A60FB681B6A7B61FB681B6A23F074
:102EAC000102FB681A62FB689B693B613B6923F07A
:102EBC00F0033B617B681B013A6913433B617B69FF
:102ECC0023F00A037B617A69BB6813437B61FB685F
:102EDC003A699A61FB687A691A6200BF1C37BD4671
:102EEC0080BC704780B487B000AFF860B9607A607E
:102EFC00FB681B6A23F01002FB681A62FB689B6973
:102F0C007B61FB681B6A3B617B6923F470437B61CB
:102F1C007B681B037A6913437B613B6923F0A00335
:102F2C003B61BB681B013A6913433B61FB687A69DF
:102F3C009A61FB683A691A6200BF1C37BD4680BCB7
:102F4C00704780B485B000AF786039607B689B684F
:102F5C00FB60FB6823F07003FB603A68FB6813436B
:102F6C0043F00703FB607B68FA689A6000BF143774
:102F7C00BD4680BC704780B487B000AFF860B960C4
:102F8C007A603B60FB689B687B617B6923F47F43C1
:102F9C007B613B681A027B681A43BB6813437A69EE
:102FAC0013437B61FB687A699A6000BF1C37BD468E
:102FBC0080BC704780B487B000AFF860B9607A60AD
:102FCC00BB6803F01F03012202FA03F37B61FB6869
:102FDC001A6A7B69DB431A40FB681A62FB681A6A3F
:102FEC00BB6803F01F03796801FA03F31A43FB680B
:102FFC001A6200BF1C37BD4680BC704780B485B0D8
:10300C0000AF786039607B6893F83C30012B01D1BC
:10301C00022346E07B68012283F83C207B68022275
:10302C0083F83D207B681B685B68FB607B681B68D2
:10303C009B68BB60FB6823F07003FB603B681B68FC
:10304C00FA681343FB607B681B68FA685A607B68FC
:10305C001B68164A93420ED07B681B68B3F1804FF5
:10306C0009D07B681B68124A934204D07B681B68AA
:10307C00104A93420CD1BB6823F08003BB603B68C1
:10308C005B68BA681343BB607B681B68BA689A605C
:10309C007B68012283F83D207B68002283F83C206A
:1030AC00002318461437BD4680BC7047002C0140E5
:1030BC00000400400008004070B500260C4D0D4C7B
:1030CC00641BA410A64209D100F022F800260A4D78
:1030DC000A4C641BA410A64205D170BD55F8043BE4
:1030EC0098470136EEE755F8043B98470136F2E76E
:1030FC007831000878310008783100087C310008FC
:10310C0003460244934200D1704703F8011BF9E7D0
:10311C00F8B500BFF8BC08BC9E467047F8B500BFB8
:08312C00F8BC08BC9E46704788
:10313400466F726B6C69667400000000427920541B
:1031440075616E2026204E676F630000020304053C
:10315400060708090A0B0C0D0E0F101000000000E2
:103164000000000001020304060708090000000033
:04317400010203044D
:043178003101000819
:04317C000D01000839
:0C3180000024F40010000000010000001A
:0400000508000D29B9
:00000001FF
