:020000040800F2
:10000000500A0020F5010008632E0008E9270008C7
:10001000612E000801140008A93900080000000042
:100020000000000000000000000000008533000810
:10003000B514000800000000A13100088733000853
:100040000F0200080F0200080F0200080F0200084C
:100050000F0200080F0200080F0200080F0200083C
:100060000F0200080F0200080F0200080F0200082C
:100070000F0200080F0200080F0200080F0200081C
:100080000F0200080F0200080F0200080F0200080C
:100090000F0200080F0200080F0200080F020008FC
:1000A0000F0200080F0200080F0200080F020008EC
:1000B0000F0200080F0200080F0200080F020008DC
:1000C0000F0200080F0200080F0200080F020008CC
:1000D0000F0200080F0200080F0200080F020008BC
:1000E0000F0200080F0200080F02000800F002F8DB
:1000F00000F070F80AA090E8000C82448344AAF152
:100100000107DA4501D100F065F8AFF2090EBAE84F
:100110000F0013F0010F18BFFB1A43F0010318473B
:10012000A84E0000C84E0000103A24BF78C878C11D
:10013000FAD8520724BF30C830C144BF04680C60ED
:10014000704700000023002400250026103A28BF35
:1001500078C1FBD8520728BF30C148BF0B60704739
:100160006E2900F01181702900F0DC81692900F00E
:10017000CF80642900F0CC80752900F0C9806F29F8
:1001800000F07481782900F0C0810368DB0928BF82
:1001900041F08001632900F08983732900F08E8388
:1001A000E32900F0AB83002070471FB59DE80300F2
:1001B00000F0D8FE00F0CEFC04000020002104F086
:1001C000ABF8401C606000F0D1FB1FBD10B500F023
:1001D00036FC10BD00F099FC1146FFF7E6FF03F076
:1001E0003BFD00F08DFE03B4FFF7F0FF03BC01F010
:1001F0006BF800000948804709480047FEE7FEE722
:10020000FEE7FEE7FEE7FEE7FEE7FEE7FEE7FEE7C6
:1002100004480549054A064B70470000E9330008C9
:10022000ED00000850040020500A00205006002075
:10023000500600200FB4044910B503AA029800F03C
:1002400041FB10BC5DF814FB4403002070B504466C
:1002500085690068C10601D5302600E02026C00768
:1002600007D070BDD4E9012130469047206A401C78
:1002700020626D1EF6D570BD70B5044685690078A4
:10028000C00707D170BDD4E9012120209047206A22
:10029000401C20626D1EF6D570BD09684A0501D567
:1002A00040B27047C905FCD500B2704709684A05DD
:1002B00001D5C0B27047C905FCD580B2704770B592
:1002C0000C460546012A05D02878800600D5EA6943
:1002D000002302E0012305E05B1C934202D2E05CB4
:1002E0000028F9D1A869E618C01AA861286A18443C
:1002F00028622846FFF7AAFF04E0D5E9012114F897
:10030000010B9047B442F8D32846FFF7B5FF70BD04
:100310002DE9F0410646002410687529314616A5DE
:1003200010D0FFF7BAFF002802DA404213A507E019
:1003300031688A0701D512A502E0490704D511A545
:10034000012401E0FFF7B2FF00210A2206F1240791
:1003500009E0B0FBF2FCB0FBF2F302FB1C00303012
:1003600078541846491C0028F3D123462A463046C3
:10037000BDE8F04100F01FBA000000002D000000B1
:100380002B0000002000000011680268006A53057D
:1003900001D508700AE0D30501D5088006E01306F0
:1003A00003D5C217C1E9000200E0086001207047D0
:1003B0002DE9FF5F15468A460446DFF8AC80F84415
:1003C0000027D8E900103E46CDE9001010E03AF8C9
:1003D00016106A4602A800F09DFA411C07D0217849
:1003E000890603D5E269391891420DD80744761C75
:1003F0002078800602D5E069B84205DDAE42E6DB32
:100400003AF816000028E2D1A069C01BA06120467E
:10041000FFF71CFFD8E90010CDE90010002017E01D
:100420003AF818106A4602A800F074FAB0F1FF3FDB
:1004300081460BD000250DF1080B05E0D4E9012120
:100440001BF8050090476D1C4D45F7D308F10100DE
:10045000B0428046E4DB206A384420622046FFF741
:100460000BFFBDE8FF9F0000B64B000070B50446CF
:1004700021461068FFF71AFF002104F1240505E06A
:1004800000F007023032C0086A54491C0028F7D136
:100490002068002307A2050707D5800600D421B1F4
:1004A000E069012304A2401EE0612046BDE87040DF
:1004B00000F081B90000000030000000F0B40D46EB
:1004C0000188090502D51B4C7C4402E0194C7C4490
:1004D0000E34002100F1240305E002F00F0612099A
:1004E000A65D5E54491C002AF7D10278002312074A
:1004F00004D5702D06D009B1022311342246F0BC78
:1005000000F059B901231034F8E770B504460D46E0
:1005100021461068FFF7CAFE024629462046BDE87C
:100520007040CBE70368126843F0200303600823A0
:10053000C361C3E7B44A00002DE9F05F8946044671
:100540004FF0000ADFF874B1FB44C0F820A0204649
:10055000E1688847002874D0252806D0D4E9012115
:100560009047206A401C2062F1E700265F46204643
:10057000E16888472028054607DB312D05D2781928
:1005800010F8200C08B10643F1E7B00701D526F0BA
:100590000406C4F81CA00027C4F818A02A2D09D00E
:1005A000284603F05BFA38B304EB8708303DC8F8FF
:1005B000185019E059F8041B204604EB870291619A
:1005C000E1688847012F054618D1E069002820DA44
:1005D00026F020061DE0D8F8180000EB800005EB9F
:1005E00040003038C8F818002046E16888470546C2
:1005F00003F034FA0028EED1012F0AD02E2D08D1B5
:100600002046E16888477F1C0546022F46F02006F9
:10061000C4DBA069002803DA404246F00106A0616D
:10062000F00701D026F010066C2D0BD0682D09D0F4
:100630004C2D39D06A2D35D0742D35D07A2D33D04C
:1006400016E038E0E1682F4620468847B842054664
:1006500009D16C2F26D04FF48060E1680643204614
:100660008847054604E06C2F1AD04FF4807006438B
:100670000DB3A5F14100192802D8203546F40066D3
:100680004A462946204626604E46FFF769FD80B15E
:1006900001280BD0F61D26F0070000F1080956E7E7
:1006A0004020E4E78020D8E70020D6E706F10409DF
:1006B0004DE7284652E7206ABDE8F09F5C4A0000FB
:1006C00010B5431C02E010F8011B71B18107FAD18B
:1006D0004FF0013202C88C1A8C4314EAC211F9D0CF
:1006E000C01A0A0603D0C01E10BDC01A10BD0A04ED
:1006F00001D0801E10BD0902FCD0401E10BD10B5F7
:10070000203AC0F00B80B1E81850203AA0E8185009
:10071000B1E81850A0E81850BFF4F5AF5FEA027CCA
:1007200024BFB1E81850A0E8185044BF18C918C039
:10073000BDE810405FEA827C24BF51F8043B40F8DA
:10074000043B08BF7047D20728BF31F8023B48BFBF
:1007500011F8012B28BF20F8023B48BF00F8012BFD
:1007600070474FF0000200B5134694469646203974
:1007700022BFA0E80C50A0E80C50B1F12001BFF45A
:10078000F7AF090728BFA0E80C5048BF0CC05DF8C0
:1007900004EB890028BF40F8042B08BF704748BF0E
:1007A00020F8022B11F0804F18BF00F8012B704782
:1007B0007047704770472DE9F0470D4699469246BD
:1007C000044600F124080168880604D5E06921F098
:1007D0001001216000E00120A84201DD471B00E07C
:1007E0000027A1697A1902EB0900081AA061207894
:1007F000C00602D42046FFF729FD002608E0D4E910
:1008000001211AF806009047206A401C761C2062DD
:100810004E45F4DB2078C0060AD52046FFF716FDCA
:1008200006E0D4E9012130209047206A401C206274
:10083000381EA7F10107F4DC07E0D4E9012118F81C
:1008400005009047206A401C2062281EA5F1010582
:10085000F3DC2046FFF710FD2078000602D50220C9
:10086000BDE8F0870120FBE701694A1C02610878B6
:10087000704700B58FB0CDE90131002105910549E0
:100880007944CDE9031011466846FFF755FE0FB0D5
:1008900000BD0000E5FFFFFF10B5436913B1AFF3E2
:1008A000008001E0FFF70BFD012010BD127800F180
:1008B00024010A7000224A700122EDE711684FF00E
:1008C000FF32E9E7074B70B50D467B44FFF7D1FFD8
:1008D0000446284600F046F810B14FF0FF3070BDD6
:1008E000204670BD3332000010B5436913B1AFF339
:1008F000008001E0FFF75CFD012010BD128800F1CF
:10090000240182840022C2840122EDE711684FF0A5
:10091000FF32E9E770B516460C46054600F01AF8B6
:10092000036893F80101012806D0FF2C0FD8185D49
:1009300068B101202C7070BDD3F807013246214602
:1009400003F2071303442846BDE8704018474FF0F0
:10095000FF3070BD10B500F0FDF8001D10BD00BFE8
:10096000B9390000007B00F08000704710B54248A4
:100970005421FFF7F6FE41485421FFF7F2FE4048AC
:100980005421FFF7EEFE3F493B483C4A3F4B08608D
:100990003D490A603A491960531C0365481C1065BB
:1009A000012008653B48344A39A1784400F00CFA2C
:1009B00020B9384878440A3800F0ABFA37482F4A53
:1009C00035A1784400F000FA20B9344878440A3858
:1009D00000F09FFA32482A4A2FA1784400F0F4F937
:1009E00020B92F4878440A3800F093FA402322486F
:1009F000DC000021224600F0C3F920B125487844EC
:100A0000543800F086FA1D4822464023002100F0A9
:100A1000B7F920B121487844543800F07AFA1848E0
:100A200022461023002100F0ABF9002806D01C4814
:100A30007844BDE81040563800F06BBA10BD10483D
:100A400070B5006D20F001040B4800F033FA0B483C
:100A500000F030FA0A4800F02DFA09E0206D20F08D
:100A60000105204600F026FA204600F077F82C46D3
:100A7000002CF3D170BD0000F002002044030020E0
:100A800098030020780000207C00002080000020D7
:100A9000720000000B46000077000000F7450000E0
:100AA000E34500000EB5CDE90001FFF709FE029015
:100AB00069460120ABBE0EBD08B569460090022014
:100AC000ABBE08BD1FB58DE8070069460520ABBE6B
:100AD00004B010BD1FB58DE80F0069460620ABBEFF
:100AE000F6E708B5694600900920ABBE08BD1CB505
:100AF000CDE9000169460A20ABBE1CBD704708B5B0
:100B0000694600900C20ABBE08BD754600F008FA9F
:100B1000AE4605006946534620F00700854618B0EA
:100B200020B5FFF775FBBDE820404FF000064FF001
:100B300000074FF000084FF0000B21F00701AC4612
:100B4000ACE8C009ACE8C009ACE8C009ACE8C00931
:100B50008D467047004870470C04002070B504466D
:100B6000051F00F0E3F90068002C14BF446870BD55
:100B7000002C18BFAC423CBF20466468F8D3016823
:100B80000A18AA4218BF456003D12A6805461144D5
:100B9000016028684119A1421CBF6C6070BD61688A
:100BA000696021680844286070BD2DE9F04705465A
:100BB0000C46C86820F4201040F48000C86080060D
:100BC00002D5084600F0FFFAE06841F282014FF0DA
:100BD000FF390140022903D0204600F09DFAB5E01C
:100BE00000F42041B1F5004F0FD1C00306D5616874
:100BF000E06A884200D80846606006E02069E0624A
:100C000060606069FFF77BFFA061A0680022EEB220
:100C100000280DDAE1688B050AD4C043A06041F4D6
:100C200090302260E0606068411C61600670A5E061
:100C3000E0689046226040F40050E060206968BBA4
:100C40006069FFF74EFF012704F12405A0B1A089D8
:100C500010F4407F08D0E06900F0B3F9206118B1CA
:100C6000E06840F4006016E0E7612561E06820F488
:100C7000407040F480600EE0E06900F0A2F90028C6
:100C80002061F1D0E06840F4006010F4407FE06043
:100C900002D140F48070E06020696060E0682569FE
:100CA0006FF0010AC1051FD56168E06A884200D86B
:100CB0000846411B04D02246284600F037FAF0BB14
:100CC000E068010203D5E562C4E9015854E0691CFB
:100CD000E1626160E16940F48030491EC4E90210BC
:100CE00030462E70BDE8F087010202D500F4803254
:100CF0000AE06068411C61600670E0680A2E40F4FA
:100D00008030E06006D00022E16A6068814203D949
:100D10000B4602E00122F7E70346A7895B1B7F052C
:100D200003D4E7699F4200DDE2B1814200D8014669
:100D3000E5620F1AC4E90158002B09DD00E005E067
:100D400022461946284600F0F1F908B14846C9E79D
:100D500047B1A069E5626560C01BA061E06840F032
:100D60001000E060E068000208D56168A069E562F3
:100D7000491B08446560A0615046B3E73046B1E7BF
:100D800070B5C468A50713D0650211D4B2F5807F91
:100D900009D0B2F5007F06D0B2F5806F08D10123EB
:100DA00000F1240106E05D1E6FF07F46B54201D3DD
:100DB000012070BD0161C361416024F47061114381
:100DC000C160002070BD00002DE9F0410C460746CF
:100DD0001646104600F06EF82078611C61280AD093
:100DE000722802D077283CD102E00125002405E0DA
:100DF0000225042402E0082448F2020511F8010B40
:100E00002B2806D0622809D011F8010C74280AD0CA
:100E10000BE045F0030544F00204EFE745F004055C
:100E200044F00104EAE744F0100438462146FFF795
:100E300039FE411C15D00021316171604FF4007101
:100E4000F560F1617061200704D53046022200216F
:100E500000F0E6F8306D40F0010030653046BDE846
:100E6000F0810020FBE72DE9F0410D460646104CCD
:100E7000206DC10704D0410804D020F00104F7E739
:100E800022460EE0542000F09CF807000ED0206DA2
:100E900047F001010843542120653846FFF761FC03
:100EA0003A4629463046BDE8F0418DE70020D6E7B6
:100EB000F00200202DE9F04704464FF000094FF002
:100EC000FF37C568D4E90486A80707D0204600F09C
:100ED00057F93046FFF7F0FD002802DA3846BDE842
:100EE000F087280502D54046FFF738FE4C21204602
:100EF000FFF737FC206D20F0010020654846EEE743
:100F000010B50446AFF300802046BDE81040FFF75F
:100F10006AB910B500F07EF9BDE8104000F074B970
:100F200000487047EC0300207047000000487047FD
:100F3000F4030020704770477047704738B5044687
:100F40000A4600206946AFF30080002808BF38BD7C
:100F500002460099204600F0C4F9012038BD012066
:100F600000F013BAF8B5AFF30080054600200C4638
:100F7000102000BF0646A819A0420DD93246694686
:100F80000020AFF30080070008BF00F0FEF90098D2
:100F9000A04218BF0546C419FFF7C8FF0560074601
:100FA000F01D20F007004619284600F093F9B442DE
:100FB00008BFF8BDA21B31463868BDE8F84000F014
:100FC00090B970B50646FFF7B1FF056806F10B0052
:100FD00020F00704B4429CBF002070BD2B466A6815
:100FE000BAB11068A04210D304F1080188423CBF96
:100FF0005068586007D35168101941601168091B87
:10100000016058601460101D70BD13465268002ABC
:10101000E7D121462846FFF791FF0028DED170BDB9
:101020002DE9F041044616460D464769007B8007CE
:101030002ED03846FFF755FD50BB3EB3012E02D0EF
:10104000022E25D104E0204600F065F905441DE09C
:101050003846FFF754FDE168002841F01001E160D7
:1010600005DA204600F058F80120BDE8F081C903F8
:101070000BD56268E16A914200D81146A269114419
:101080002269891A814200DD08460544002D01DAF3
:101090000220EAE7E16A6068E268814206D29103D1
:1010A000E06203D522F4003141F01002A669002766
:1010B000AE4213DCE16A814201D90B4600E00346EF
:1010C00003EB060C2369ACEB030CAC4506DD814257
:1010D00001D98C4600E084469C4505D1A760276075
:1010E00042F02000A5620DE0AD1BE669AE1B814217
:1010F000A66000D90846C01A281A206058196060F6
:1011000022F0200003490840E060002084F8487085
:10111000ABE70000BFCFD7FFC16821F4001141F059
:101120008001C16000218160016070472DE9F047B6
:10113000814614460E464FF0FF383248D56857694D
:10114000054209D03846A169FFF7D1FC002811DB20
:101150002C48C0430540E5602B4632464946384698
:10116000FFF7B0FCA16920F00042B21A1144002838
:10117000A16103D02046FFF7CFFF4046BDE8F087CE
:1011800070B504460569C06A6168884200D808469F
:10119000E16821F42011E160C90312D5A84208D00A
:1011A0002246411B2846FFF7C1FF10B14FF0FF3028
:1011B00070BD0020E562C4E90150E06820F4803091
:1011C000E060002070BD10B50446C06820F020002B
:1011D000E060A16AA06988420DD02046FFF7D0FFE9
:1011E000E06820F4405040F01000E060A06AA06188
:1011F0002069E062606044F24001E0688843E0609A
:1012000010BD000010000200002801D000F05CB802
:101210007047000010B5014602A000F09DF80120C3
:1012200010BD000053494752545245443A2052657C
:101230006469726563743A2063616E2774206F700D
:10124000656E3A20000000004FF0013C50F8042B7E
:1012500051F8043B9A4221D1A2EB0C03934313EAC9
:10126000CC1317D150F8042B51F8043B9A4215D1F6
:10127000A2EB0C03934313EACC130BD150F8042BCD
:1012800051F8043B9A4209D1A2EB0C03934313EAB1
:10129000CC13DBD04FF00000704700BFD01A01BA6A
:1012A000B1FA81F101F0180122FA01F0CB40C1F14D
:1012B0002001DBB2C0B2C01A2CFA01F3D11A91435B
:1012C00011EAC311E6D1704701491820ABBEFEE711
:1012D0002600020000210160C0E9011070471020C3
:1012E0007047034640688C46002818BF88423CBFC0
:1012F00003464068F8D318681844884207D00CF1B8
:10130000030020F00700001D411A521A0146081D73
:101310000A60FFF723BC10B50146C268900703D0EE
:10132000900607D5886A0AE000F03EF801210160C6
:10133000881E10BD8B69486818440B69C01A91F863
:1013400048301BB191F84910401A10BD1103FCD56B
:101350000028FADD401E10BD70B505460C460A2077
:1013600000E06D1C00F018F835B128780028F8D19D
:1013700002E0641C00F010F814B120780028F8D1C5
:10138000BDE870400A2000F007B810B500F010F872
:10139000BDE81040FFF738BF08B569468DF800007A
:1013A0000320ABBE08BD000000487047EC030020DE
:1013B00010B5012805D0002103A0FFF7CDFF0120C3
:1013C00010BD09A1F8E7000053494752544D454D5F
:1013D0003A204F7574206F662068656170206D65D6
:1013E0006D6F7279000000003A2048656170206DD1
:1013F000656D6F727920636F7272757074656400C9
:10140000FEE700002DE9F0410122254ED4022146DD
:10141000304600F058F9234D0020296848622868BA
:10142000416A0A29FCD300222146304600F04BF9DC
:1014300000F04EF91C4C4FF48067A06439463046EA
:1014400000F03CF928B900F043F9A16C0A31884258
:10145000F4D32868406AE06200F03AF9A0643946A3
:10146000304600F02BF928B100F032F9A16C32318E
:101470008842F4D32868406A2063E16A401A03F086
:101480009DF80A4A0A4B03F0E9F84FF0FF3203F0E7
:101490000CFD03F04FF82080C0B2BDE8F0810000E1
:1014A00000080140D0010020080000209CC420B0AA
:1014B0007268A13F7047000070B5044600F008F95B
:1014C0000546601C02D004480078044400F000F98E
:1014D000401BA042FAD370BD680000202DE9F84FF0
:1014E000DFF8B891002409F1040A0AF1040B23463D
:1014F0000F270BF1040EC9E00125A5402A40AA429E
:101500007DD1674ED1F804C0ACEB0608B44532D0AB
:1015100014DCBCF1030F3AD009DCBCF1000F2AD077
:10152000BCF1010F1CD0BCF1020F31D11DE0BCF1A8
:10153000110F17D0BCF1120F2AD119E0B8F5881F8E
:1015400019D006DCB8F5803F15D0B8F5801F1FD143
:1015500011E0B8F5001F0ED0B8F5041F18D10AE04D
:10156000CB6815E0CB681B1D12E0CB6808330FE099
:10157000CB680C330CE08B682BB1012B4FF00803C8
:1015800003D0456104E0042302E0056100E000238C
:10159000FF2A01D8064601E000F104064FEA84055F
:1015A00001D9A5F12005D6F8008007FA05FC28EA44
:1015B0000C0803FA05F548EA0508C6F800804D68EE
:1015C000ED0062D5374DAE6946F00106AE61AD69FA
:1015D00024F0030605F001050095334D06EB050CDC
:1015E000DCF80850A607360F07FA06F825EA0805C2
:1015F000DFF8B880404503D14FF0000817E044E021
:10160000DFF8AC80404502D14FF001080FE0DFF871
:10161000A480404502D14FF0020808E0DFF898802E
:10162000404502D14FF0030801E04FF0040808FAEA
:1016300006F848EA0508CCF808804D68D9F800603B
:10164000ED034D4601D5164300E096432E604D68EC
:10165000DAF80060AD03554601D5164300E0964325
:101660002E604D68DBF80060ED025D4601D5164343
:1016700000E096432E604D68DEF80060AD027546CE
:1016800001D5164300E096432E60641C0D682A467F
:10169000E5407FF431AFBDE8F88F00000004014061
:1016A000000011100010024000000140000801403D
:1016B000000C014000100140001401408068084007
:1016C00000D0012070470AB1016170470904FBE7AF
:1016D00001488068704700006800002070B5040071
:1016E00025D094F83D00002520B984F83C502046D0
:1016F00000F04EF9242084F83D002068016821F0B4
:10170000010101602068016841F400410160206826
:10171000016821F40041016000F092FA4D4A6168CD
:10172000914201D84C4900E04C49884201D2012045
:1017300070BD4B492368B0FBF1F15E6826F03F06AF
:101740000E435E606368934206D94FF49673594323
:101750004FF47A73B1FBF3F12368491C1E6A26F03B
:101760003F06314319626168914210D84900401E1A
:10177000B0FBF1F2521CC2F30B02042A01D2042086
:1017800022E0B0FBF1F0401CC0F30B001CE0A268AB
:10179000F2B301EBC10303EB0116431EB3FBF6F3F7
:1017A0005B1C43F480431B0549D092B301EBC1029B
:1017B00002EB0111401EB0FBF1F0401CC0F30B0026
:1017C00040F4804040F400402168CA694CF6FF7341
:1017D0009A431043C861D4E90710014320680268A6
:1017E00022F0C00211430160D4E9030101432068E3
:1017F000826848F2FF339A4311438160D4E90501BE
:1018000008432168CA6822F0FF021043C86001E063
:101810000EE016E02068016841F0010101602564D6
:10182000202084F83D00256384F83E50002070BDE0
:1018300001EB4106431EB3FBF6F35B1CB3E701204B
:10184000C2E701EB4101401EB0FBF1F0401CC0F3C8
:101850000B00B7E7A086010080841E0000093D0050
:1018600040420F002DE9F84F1F4690468A46044635
:10187000DDF82890FFF72CFF054694F83D0020285E
:101880007FD11923012240492046009501F038F804
:10189000002876D194F83C00012872D0012084F809
:1018A0003C0020680168C90703D1016841F00101CB
:1018B00001602068016821F400610160212084F842
:1018C0003D00102084F83E0000262664C4F82480E1
:1018D0006785608D20852D48E0622B464A4651463B
:1018E000204600F099FF90B9206841698069009016
:1018F00036E02A464946204601F081F850B1206C76
:10190000042804D12068016841F4007101600120BD
:10191000BDE8F88F606A216800780861606A401C41
:101920006062618D491E6185218D491E89B22185C4
:1019300022685369DB435B070BD451B10078106117
:10194000606A401C6062608D401E6085208D401E74
:1019500020852A464946204600F0ACFF0028CED11B
:10196000208D0028C5D154F83D0B016841F4007169
:101970000160202004F81E09E67766770020C7E79B
:10198000FFE70220C4E70000020010000000FFFF94
:1019900010B586B000210091019102910391006879
:1019A0001349884222D1134CA06940F00800A0617D
:1019B000A069694600F0080004904FF44070009060
:1019C00012200190032003900B48FFF787FD0B487E
:1019D000416841F0E06141F002014160E06940F49A
:1019E0000010E061E06900F40010049006B010BD42
:1019F0000054004000100240000C01400000014073
:101A000002488168027811448160704768000020B4
:101A1000074810B5016841F010010160032000F093
:101A200067F80F2000F006F800F024F8002010BD41
:101A30000020024070B50D4D04464FF47A712878AD
:101A4000B1FBF0F00A490968B1FBF0F000F051FC7D
:101A500048B9102C07D200222146501E00F028F869
:101A600000206C6070BD012070BD00006800002087
:101A7000740000200C4808B5816941F001018161C2
:101A8000816901F001010091C16941F08051C1619A
:101A9000C06900F0805000900448416821F0E06186
:101AA00041F00071416008BD00100240000001409B
:101AB000F0B40E4B1B680C46C3F30223C3F10705B9
:101AC000042D00D90425191D072901D2002300E0A7
:101AD000DB1E012606FA05F1491E214099409E4071
:101AE000761E16403143F0BC01F0A8BF0CED00E0BB
:101AF000064900F0070208684FF6FF03184040EA65
:101B00000220034A10430860704700000CED00E01B
:101B10000000FA052DE9F0470F46050061D0434E5D
:101B2000306800F00700B84209D2306820F00700A2
:101B300038433060306800F00700B84251D128685F
:101B40003B4C810712D5400703D5606840F4E06044
:101B500060602878000703D5606840F460506060DA
:101B60006068A96820F0F000084360602878C0072A
:101B700028D06868012810D02168022810D0890771
:101B800000292EDA616821F0030101436160FFF74B
:101B90009FFD804641F288390DE021688903EFE717
:101BA0008901EDE7FFF794FDA0EB0801494502D953
:101BB0000320BDE8F0876068696800F00C00B0EBB6
:101BC000810FEFD1306800F00700B8420BD93068C0
:101BD00020F0070038433060306800F00700B8425A
:101BE00001D00120E5E72878400705D56068E9685D
:101BF00020F4E060084360602878000706D560683C
:101C0000296920F4605040EAC100606000F028F8C3
:101C10006168084AC1F30311515CC8400649086075
:101C200006480068FFF706FF0020C2E700200240D8
:101C3000001002405D4F0008740000206C0000207E
:101C40000448054900684968044AC1F30221515C0F
:101C5000C840704774000020001002406D4F00081B
:101C600012A185B00FC98DE80F0014A0144A0068B6
:101C700004905168134801F00C03042B10D0082B7A
:101C80000ED1C1F38343C9031DF803000AD551687F
:101C900004AAC1F34041515C0A4A5043B0FBF1F041
:101CA00005B0704708494843FAE7000002030405FD
:101CB000060708090A0B0C0D0E0F10100102000098
:101CC0000010024000127A0000093D002DE9F84F93
:101CD000040070D02078C04DC00749D06868C0F3B8
:101CE0008100012807D06868C0F38100022809D16B
:101CF0006868C00306D52868800339D56068002865
:101D0000E7D035E06068B0F5803F0BD010B1B0F59A
:101D1000A02F11D0286820F480302860286820F493
:101D2000802002E0286840F480302860606890B12C
:101D3000FFF7CEFC06460AE0286840F480202860C1
:101D4000F0E700BFFFF7C4FC801B642873D8286845
:101D50008003F7D50CE0FFF7BBFC064605E000BFAB
:101D6000FFF7B6FC801B6428F0D828688003F7D4FE
:101D700020789A4E80074FF001094FF0000839D5BE
:101D8000686810F00C0F07D06868C0F38100022863
:101D900009D16868C00306D42868800714D5206973
:101DA000012808D110E02069B0B1C6F80090FFF713
:101DB0008FFC074605E00AE1FFF78AFCC01B0228FA
:101DC000C4D828688007F7D52868616920F0F80032
:101DD00040EAC10028600DE0C6F80080FFF778FCFB
:101DE000074604E0FFF774FCC01B022823D82868CC
:101DF0008007F7D4207800072CD57948A169D9B19C
:101E0000C0F80090FFF764FC074604E0FFF760FCB1
:101E1000C01B02280FD8686A8007F7D571484FF4B5
:101E2000FA510068B0FBF1F0009000BF0098411E2D
:101E30000091FAD20EE080E0C0F80080FFF748FC85
:101E4000074604E0FFF744FCC01B022875D8686A07
:101E50008007F7D42078400760D5E8690027C000E4
:101E600008D4E86940F08050E861E869012700F093
:101E7000805000905C480168C90513D4016883460E
:101E800041F480710160FFF723FC824606E000BF49
:101E9000FFF71EFCA0EB0A0064284ED8DBF8000018
:101EA000C005F5D5E06801280AD008B1052813D08F
:101EB000286A20F001002862286A20F0040002E06D
:101EC000286A40F001002862E06841F2883B98B13E
:101ED000FFF7FEFB82460BE0286A40F00400286210
:101EE000EEE700BFFFF7F4FBA0EB0A0159455AD813
:101EF000286A8007F6D50CE0FFF7EAFB824605E08A
:101F0000FFF7E6FBA0EB0A0159454CD8286A800789
:101F1000F6D41FB1E86920F08050E861E06988B329
:101F20006968C1F38101022944D00228C6F86080A3
:101F300004D0FFF7CDFB044638E034E0FFF7C8FBE0
:101F4000074604E0FFF7C4FBC01B02282BD8286813
:101F50008001F7D4206AB0F5803F05D16868A16898
:101F600020F4003008436860D4E908010843696838
:101F700021F4741108436860C6F86090FFF7A8FB6D
:101F8000044606E025E000BFFFF7A2FB001B022885
:101F900009D828688001F7D51BE000BFFFF798FB40
:101FA000001B022802D90320BDE8F88F28688001B1
:101FB000F4D40EE00128F7D06868226A00F480317A
:101FC000914204D1616A00F47010884201D001206E
:101FD000EAE70020E8E7000000100240000042426B
:101FE00080044242740000200070004070B504007C
:101FF00009D0606A002540B125616561A56294F849
:10200000510040B10CE0012070BD6068B0F5827FE6
:10201000F4D0E561F2E784F85050204600F040F833
:10202000022084F851002068016821F0400101601D
:10203000A088218900F4827001F404410843A18939
:1020400001F400610843217C01F002010843217D75
:1020500001F001010843218B01F400710843217F45
:1020600001F03801084394F8201001F08001084382
:10207000218D01F40051084321680860A069042102
:1020800001EA1040216848602068C16921F40061BC
:10209000C1616565012084F85100002070BD000019
:1020A00030B585B000240094019402940394006834
:1020B0001449884223D11448816941F480518161D7
:1020C000816901F480510491816941F004018161C9
:1020D00080690E4D00F004000490A02000900220C2
:1020E00001900320039069462846FFF7F7F9402046
:1020F000CDE90004694628460294FFF7EFF905B0E0
:1021000030BD0000003001400010024000080140D6
:102110002DE9F84F044690F8500000270A9E1D460E
:1021200092468B464FF0010901280ED0012084F819
:102130005000FFF7CDFA804694F8510061680128FD
:102140000CD0B1F5827F07D102E00220BDE8F88F04
:10215000A16809B9042801D00227C2E0BBF1000F31
:1021600027D0BAF1000F24D01DB394F851000428F1
:1021700002D0052084F8510000206065C4F838A022
:10218000E587A587C4F830B0E586A586206460643D
:1021900020680168490603D4016841F040010160EC
:1021A000E068B0F5006F606805D0E8B3012D46D057
:1021B0007FE0012795E008B1012D39D1206B21681E
:1021C0000088C860206B801C2063E08E401EE08683
:1021D0002EE02068816889070FD5E18E69B1B9F1D9
:1021E000010F0AD1216B0988C160206B801C20631C
:1021F000E08E401EE0864FF0000920688168C90724
:102200000CD0E18F51B1C068A16B0880A06B801C1D
:10221000A063E08F401EE0874FF00109FFF758FAF6
:10222000A0EB0800B04200E009E001D3701C50D1DF
:10223000E08E0028CDD1E08F0028CAD13FE0206B8E
:10224000216800780873206B401C2063E08E401EDC
:10225000E0862EE02068816889070FD5E18E69B19C
:10226000B9F1010F0AD1216B09780173206B401C71
:102270002063E08E401EE0864FF0000920688168F0
:10228000C9070CD0E18F51B1C068A16B0870A06B79
:10229000401CA063E08F401EE0874FF00109FFF76C
:1022A00017FAA0EB0800B04202D3701C01D010E076
:1022B0007EB1E08E0028CDD1E08F0028CAD1424601
:1022C0003146204600F0F1FF28B10127202060654B
:1022D00007E0032705E0A06818B92068C168806896
:1022E0000090012084F85100002084F85000384606
:1022F0002CE710B5401EB0F1807F01D3012010BD46
:102300004FF0E02460610F21601701F097FB00207F
:10231000A06107202061002010BD000070B590F87A
:102320003C20012A26D0012480F83C40022280F87B
:102330003D2003685A689D6822F070060A6832439F
:102340005A600D4B02689A4208D0B2F1804F05D016
:102350000A4B9A4202D00A4B9A4204D1496825F0AE
:1023600080031943916080F83D40002180F83C10C3
:10237000084670BD022070BD002C014000040040E2
:102380000008004010B5040003D094F83D0010B1DF
:1023900007E0012010BD002084F83C00204600F03A
:1023A0001FF8022084F83D00211D206801F01EF86E
:1023B000012084F8460084F83E0084F83F0084F849
:1023C000400084F8410084F8420084F8430084F817
:1023D000440084F8450084F83D00002010BD000052
:1023E00008B5174A01681748914207D1816941F43D
:1023F00000618161806900F4006014E0B1F1804FF8
:102400000AD0114A914210D1C16941F00201C16163
:10241000C06900F0020006E0C16941F00101C1613C
:10242000C06900F00100009008BD084A9142FBD14C
:10243000C16941F00401C161C06900F00400F2E724
:10244000002C014000100240000400400008004041
:1024500090F83D10012901D001207047022180F839
:102460003D1000680B49884208D0B0F1804F05D07C
:102470000949884202D00949884204D1816801F0A3
:102480000701062903D0016841F001010160002025
:1024900070470000002C014000040040000800408C
:1024A00070B5044690F83C00012817D0012584F847
:1024B0003C50022084F83D002068826822F07702B8
:1024C00022F47F4282600868502830D00DDC20283A
:1024D0004DD005DC98B310283BD148E0022070BDF8
:1024E000302844D0402834D139E0602828D07028E2
:1024F00006D0B0F5805F2CD0B0F5005F29D10AE09E
:10250000CB68D1E90121206800F0B3FF2068816821
:1025100041F0770109E0CB68D1E90121206800F0A2
:10252000A8FF2068816841F48041816011E0CA6899
:102530004968206801F052F85021206807E016E051
:10254000CA684968206801F05AF86021206800F0E4
:102550009AFF84F83D50002084F83C0070BDCA68A2
:102560004968206801F03AF840212068EFE72268C6
:1025700001461046EBE7000030B585B00021009120
:10258000019102910391006822490224224DB0F189
:10259000804F14D0214A90420FD1886940F0080042
:1025A00088618869694600F008000490C020CDE980
:1025B000000428460394FEF791FF05B030BD8869FA
:1025C00040F004008861886900F004000490886984
:1025D00040F0080088618869694600F008000490AE
:1025E0004FF40040CDE900040D480394FEF776FF58
:1025F0000820CDE90004694628460394FEF76EFFE3
:102600000848416821F4407141F0E06141F4807173
:102610004160D2E700100240000C01400008004079
:10262000000801400000014070B5044690F83C00ED
:102630000D4601280AD0012084F83C0042B1042A4A
:1026400018D0082A2AD00C2A4DD139E0022070BDBA
:10265000206800F021FF2068816941F00801816154
:102660002068816921F004018161206881692A69FB
:10267000114311E0206800F037FF2068816941F4C0
:10268000006181612068816921F480618161206835
:1026900081692A6941EA0221816124E0206800F011
:1026A0004FFF2068C16941F00801C1612068C1691C
:1026B00021F00401C1612068C1692A69114311E058
:1026C000206800F069FF2068C16941F40061C161C0
:1026D0002068C16921F48061C1612068C1692A69EB
:1026E00041EA0221C161002084F83C0070BD10B5B0
:1026F000040003D094F83D0010B107E0012010BDA4
:10270000002084F83C00204600F01EF8022084F8E7
:102710003D00211D206800F069FE012084F846007C
:1027200084F83E0084F83F0084F8400084F84100BB
:1027300084F8420084F8430084F8440084F845009B
:1027400084F83D00002010BD7047000010B504461D
:10275000022249B104290ED0082913D094F841006F
:10276000012816D0012010BD94F83E000128F9D1AF
:1027700084F83E200FE094F83F000128F2D184F85D
:102780003F2008E094F840000128EBD184F8402075
:1027900001E084F841200122206800F05DFE0F492D
:1027A0002068884203D1426C42F4004242642068AF
:1027B000884208D0B0F1804F05D00949884202D044
:1027C0000849884204D1816801F00701062903D035
:1027D000016841F001010160002010BD002C0140A2
:1027E0000004004000080040FEE701684A69D24347
:1027F00052050FD46FF480624A61002140F8301F07
:10280000202242738173026942F004020261017363
:102810000120704700207047F8B50446C06A1E4684
:102820000D461746082807D0012805D010F5803F2F
:1028300002D0206B122804D12068016841F4807115
:102840000160134600224FF001112046009600F06F
:1028500057F840B120680068C00502D54FF40070F9
:1028600020640320F8BD2069B0F5804F0ED006200B
:10287000216800EAD51040F0F000086133463A467E
:102880000B49204600F070F878B902E005F0FE0030
:1028900000E0E8B221680861054933463A46891FDD
:1028A000204600F061F80028DCD00120F8BD0000CF
:1028B0000800010070B516460D4604460DE020469E
:1028C000FFF793FF08B1012070BD681C05D0FEF72B
:1028D000FFFE801BA84207D835B120684069C0437D
:1028E0004007ECD4002070BD002044F8300F2021B8
:1028F0006173A073216941F0200121612073E2E737
:102900002DE9F0471E4690460D460446C1F30747A1
:10291000DDF8209008E0701C06D0FEF7D9FEA0EB91
:102920000900B0420FD876B12068012F18D0806915
:1029300025EA00000004000C14D000214145EAD033
:102940000020BDE8F087002044F8300F202161739B
:10295000A073216941F02001216120730120F0E77B
:102960004069E5E70121E9E72DE9F0479A469146FC
:102970000E46044600254FF02008C1F3074725E026
:1029800020684069C043400514D42068016841F4C0
:102990000071016021686FF480604861256384F8EC
:1029A0003D8084F83E50206C40F00400206484F8A0
:1029B0003C501FE0B9F1FF3F08D0FEF789FEA0EBC5
:1029C0000A0149450CD8B9F1000F09D02068012F40
:1029D00013D0806926EA00000004000C0BD0CFE77A
:1029E00044F8305F84F80D80A573206940F0200022
:1029F000206125730120BDE8F0874069EAE770B5E2
:102A000016460D4604460DE02046FFF7EEFE08B1DF
:102A1000012070BD681C05D0FEF75AFE801BA8423D
:102A200007D835B120684069C0430006ECD40020C7
:102A300070BD002044F8300F20216173A07321691C
:102A400041F0200121612073E2E7000070B5A8B0D9
:102A500001F06FF801F061F80021084601F0A5F8D7
:102A600015A001F0EFF8342216A16846FDF747FEE5
:102A700001256E4618E001242146012001F095F859
:102A8000601930441CA110F8012C0DA8FDF7D2FBF1
:102A90000DA801F0D7F8641CE4B2102CECD9642026
:102AA000FEF70AFD6D1CEDB26846FDF709FE103811
:102AB000A842E0DA28B070BD42414920544150207C
:102AC0004C4F4E002020202020202020202020209D
:102AD0002020202020464F524B4C494654202D2088
:102AE0005845204E414E472048414E4720545520DE
:102AF00048414E4820000000256300002DE9F043C6
:102B000085B00024394800940194029403948169AB
:102B100041F010018161816901F010010491816926
:102B200041F020018161816901F0200104918169F6
:102B300041F004018161816901F00401049181691E
:102B400041F0080181618069012200F00800284FEE
:102B50005503049029463846FEF7B5FDDFF89490FA
:102B600000221E214846FEF7AEFDDFF88C800022D1
:102B700040F601014046FEF7A6FD01224FF4304128
:102B80004046FEF7A0FD0095022601250396CDE9FB
:102B9000015469463846FEF7A1FC1E20CDE9000528
:102BA000CDE9024669464846FEF798FC4BF601001F
:102BB000CDE90005CDE9024669464046FEF78EFCA8
:102BC0004FF48840CDE90004694640460294FEF780
:102BD00085FC4FF4F850CDE900046946484602945C
:102BE000FEF77CFC05B0BDE8F08300000010024059
:102BF0000010014000080140000C01400F4810B5D2
:102C00000D4901604FF48271416000218160C16013
:102C10004FF400720161C0E905120822C0E90721E2
:102C2000416281620A21C162FFF7E0F9002801D008
:102C300072B6FEE710BD00000030014078010020B0
:102C400010B586B0002417480094019402940394B0
:102C500004941349059401604721C0E9011440F22E
:102C6000E731C0E9031444618461FFF78BFB08B1CD
:102C700072B6FEE74FF48050009069460948FFF7AE
:102C80000FFC08B172B6FEE7049404A90548059448
:102C9000FFF744FB002801D072B6FEE706B010BD76
:102CA000002C0140D001002010B58EB00024079404
:102CB000089409940A940B941C2168460C94FDF71F
:102CC00050FD22484FF0804101604721C0E90114C6
:102CD00040F2E731C0E903148461FFF753FB08B108
:102CE00072B6FEE74FF48050079007A91748FFF728
:102CF000D7FB08B172B6FEE71448FFF7F8FC08B13D
:102D000072B6FEE70B940BA910480C94FFF706FB74
:102D100008B172B6FEE76020CDE9000402940022FB
:102D200069460A480494FFF77FFC08B172B6FEE7D3
:102D3000042269460548FFF777FC08B172B6FEE742
:102D40000248FFF719FC0EB010BD00001802002069
:102D500010B586B00024174800940194029403949F
:102D600004941349059401604721C0E9011440F21D
:102D7000E731C0E903148461FFF704FB08B172B6C0
:102D8000FEE74FF48050009069460A48FFF788FB41
:102D900008B172B6FEE7049404A906480594FFF74B
:102DA000BDFA002801D072B6FEE706B010BD0000E3
:102DB000000400406002002010B58EB0002407948B
:102DC000089409940A940B941C2168460C94FDF70E
:102DD000C8FC2248204901604721C0E9011440F2A3
:102DE000E731C0E903148461FFF7CCFA08B172B689
:102DF000FEE74FF48050079007A91848FFF750FBF3
:102E000008B172B6FEE71548FFF771FC08B172B65B
:102E1000FEE70B940BA911480C94FFF77FFA08B159
:102E200072B6FEE76020CDE90004029400226946F4
:102E30000A480494FFF7F8FB08B172B6FEE70422D3
:102E400069460648FFF7F0FB08B172B6FEE7034893
:102E5000FFF792FB0EB010BD00080040A802002052
:102E6000FEE7FEE72DE9F04101F006FA80B241F2FB
:102E700088310D1A284601F067F92A4C00210520F7
:102E8000A56300F00BFEE063206A0121281A20648C
:102E9000052000F003FE256206466064206C01F008
:102EA00079FEA16901F08EFE0746E06B01F072FE2B
:102EB000616901F087FE0546A06B01F06BFE216998
:102EC00001F080FE294601F0E7FD394601F0E4FDFE
:102ED00001F044FE0546304601F05CFEE16901F078
:102EE00071FE0646344605F11E0001F053FE2146F0
:102EF00001F034FF01F032FE0446C5F11E0001F07E
:102F000049FE314601F02AFF01F028FE322C00DD97
:102F10003224322800DD32202146BDE8F04100F0A5
:102F2000D5BD00000800002000B5084A87B007CAD8
:102F30008DE807000020039004900590092203A962
:102F4000684600F005F807B000BD0000484F0008D3
:102F50002DE9F047DFF8449015460E4607464FF43A
:102F60008058002241464846FEF7ADFB082000F09D
:102F700089FD002405E0385D00F062F83055641CDE
:102F8000E4B2AC42F7D3012241464846FEF79BFB30
:102F9000BDE8F047082000F075BD0000000C0140BE
:102FA0001FB507490522D1E90201CDE90001002042
:102FB0000290039002A96846FFF7CAFF1FBD0000F8
:102FC000384F000800B508A287B007CA8DE807008F
:102FD0000020039004900590092203A96846FFF79A
:102FE000B7FF07B000BD0000014300005A5A5A5A0B
:102FF0005A000000084A10B5C2E90010FFF728FA8D
:1030000000F00CF8FFF7CCFFFFF78EFF00F006F89A
:10301000BDE81040FFF7D6BF000000201FB50749EC
:103020000522D1E90001CDE90001002002900390C2
:1030300002A96846FFF78CFF1FBD0000384F00084B
:103040002DE9F05F002501241C4F80464FF4004A13
:1030500066034FF4804B4FF6FF7900BF14EA080F68
:1030600001D0012200E0002251463846FEF72BFB3A
:10307000012231463846FEF726FB082000F002FD0B
:10308000002231463846FEF71EFB082000F0FAFC0D
:10309000012231463846FEF716FB59463846FEF700
:1030A0000DFB08B12543EDB209EA4404FF2CD5D944
:1030B000082000F0E7FC2846BDE8F09F000C014026
:1030C00000B5354A87B003AB07CA83E80700002084
:1030D0000090019002900922694603A8FFF738FF8B
:1030E0009DF80100412801D0732853D12B48BDF829
:1030F0000310006841F30002521C027041F34002C9
:10310000521C427041F38002521C827041F3C00293
:10311000521CC27041F30012521C027141F3401262
:10312000521C427141F38012521C827141F3C01251
:10313000521CC27141F30022521C027241F3402220
:10314000521C427241F38022521C827241F3C0220F
:10315000521CC27241F30032521C027341F34032DE
:10316000521C427341F38032521C8273012282EA64
:10317000D131C1739DF8011073290BD19DF8051051
:1031800001749DF8061041749DF8071081749DF834
:103190000810C17407B000BD544F000800000020A3
:1031A0007047000070B5274D4FF480512846FEF758
:1031B00085FA254C0028A06835D0244910EA010082
:1031C000A0604FF400612846FEF778FA0028A06856
:1031D0002CD01E490F390840A0604FF4806128466A
:1031E000FEF76CFA0028A06823D01849FF39084080
:1031F000A0604FF400712846FEF760FA0028A0682E
:103200001AD0134910EA0100A0604FF480712846DB
:10321000FEF754FA0028A06811D00E490840A060BB
:10322000208980B270BD40F00100C9E740F0100075
:10323000D2E740F48070DBE740F48050E4E740F4EC
:103240008030ECE700080140080000201011111147
:1032500011011111111110112DE9F041074600253E
:103260004FF400760724204600F09EFF384600F019
:10327000FBFF641EF7D56D1CB542F3DBBDE8F081A2
:103280002DE9F041074600254FF400760024204642
:1032900000F08AFF384600F0E7FF641C082CF6DBDC
:1032A0006D1CB542F2DBBDE8F08138B50B460092EB
:1032B00004460022802100F009F8002804D0606D47
:1032C00040F020006065032038BD00002DE9F84380
:1032D0001E46914688460446089DFEF7F9F9401BB4
:1032E000351AFEF7F5F9074625480068C0F3CB30DC
:1032F000684338E0701C37D0FEF7EAF9C01BA842DB
:1033000003D215B1009860B32CE02068416821F029
:10331000E00141606068B0F5827F0BD1A068B0F534
:10332000004F02D0B0F5806F04D12068016821F011
:1033300040010160A06AB0F5005F09D12068016812
:1033400021F4005101602068016841F400510160DE
:10335000012084F85100002084F850000320BDE8CB
:10336000F8830025401E00902068816838EA01003B
:1033700004D000214945BDD10020F0E70121F9E743
:10338000740000207047FEF73BBB30B58FB028219A
:103390006846FDF7E6F914210AA8FDF7E2F90121D4
:1033A0000804CDE900100024029402250491CDE91F
:1033B00007504FF4E01009906846FEF787FC08B10B
:1033C00072B6FEE70F20CDE90A054FF48060CDE923
:1033D0000C4002210AA80E94FEF79CFB002801D0A5
:1033E00072B6FEE70FB030BD70470000F0B502685E
:1033F000164B174C174D4FF08047984205D0B842F6
:1034000003D0A04201D0A84203D122F070064A683E
:103410003243984205D0B84203D0A04201D0A8421E
:1034200003D122F44074CA6822434C6922F080021E
:10343000224302608A68C2620A688262984201D1AD
:103440000969016301214161F0BD0000002C0140C8
:10345000000400400008004010B501F01F030121E6
:10346000046A99408C430462016A9A4011430162E4
:1034700010BD10B5846842EA032224F47F440A4355
:103480002243826010BD826822F070020A4342F03B
:10349000070181607047000030B5026A22F0010226
:1034A0000262026A4368846924F073050C682C4345
:1034B00022F002058A682A430A4DA8420BD122F065
:1034C0000805CA6823F440732A434D6922F00402B8
:1034D0001D438B692B4343608461496841630262E9
:1034E00030BD0000002C014030B5026A22F010020D
:1034F0000262026A436884690D6824F4E64444EA7F
:1035000005248D6822F0200242EA05120B4DA842E4
:103510000ED1CD6822F0800242EA05124D6923F4F3
:10352000406343EA85038D6922F0400243EA850344
:103530004360846149688163026230BD002C0140B0
:1035400030B5026A22F480720262036A4268C4697A
:1035500023F4007324F073050C682C438D6843EA50
:1035600005230C4DA8420ED1CD6823F4006343EA35
:1035700005234D6922F4405242EA05128D6923F475
:10358000806342EA05124260C4614968C163036214
:1035900030BD0000002C014030B5026A22F4805298
:1035A0000262046A4268C3690D6823F4E64343EA91
:1035B00005238D6824F4005444EA0534064DA842DE
:1035C00004D14D6922F4804242EA85124260C3610F
:1035D00049680164046230BD002C014010B5036AE3
:1035E000046A24F001040462846924F0F00444EACB
:1035F000021423F00A020A438461026210BD10B56E
:10360000036A23F0100303628369046A23F470439E
:1036100043EA023224F0A00343EA0111826101620D
:1036200010BD10B5142000F0BDF8800705D10321AE
:10363000BDE81040142000F0ECB810BD7CB5044685
:10364000002529460D2000F07BF9932020702020D2
:10365000607001A823460090022219460C2000F059
:10366000E4F8010009D1225C401C5540C0B2042896
:10367000F9D3205CA84200D0022108467CBD2DE988
:10368000F0410E46074615460421052000F036F8A5
:1036900080210A2000F0BDF8002405E0395D0920F2
:1036A00000F04EF9641CE4B2B442F7D303210120C8
:1036B00000F046F9FF24052000F074F8641E14F0B1
:1036C000FF0401D04007F6D5222000F06BF82870E7
:1036D000212000F067F86870BDE8F08170B50546FC
:1036E0000146262000F07AF8040003D12846FFF7AF
:1036F000A5FF044600F01CF8204670BD70B50C46CE
:10370000054600F04FF820EA04012846BDE8704065
:1037100000F016B910B50022835C8C5CA34201D086
:10372000022010BD521CD2B2052AF5D3002010BDD4
:103730000EB550208DF8040000208DF805000DF125
:103740000602022101A8FFF79AFF02A801AB009030
:10375000042219460C2000F068F80EBD10B500F0E8
:1037600054F88D212A2000F0EBF83E212B2000F0A8
:10377000E7F81E212D2000F0E3F800212C2000F0B6
:10378000DFF87021262000F0DBF84021152000F042
:10379000D7F83D21112000F0D3F8BDE81040FFF725
:1037A00040BF000070B50C4D0446002201212846A0
:1037B000FDF789FF7E2000EA440040F0800000F021
:1037C000D9F8002000F0D6F8044601221146284618
:1037D000FDF779FF204670BD000C01407CB50C461A
:1037E000054607210D2000F0ABF8257001A82346FF
:1037F0000090012219460C2000F017F818B9BDF806
:103800000410102900D002207CBD0F21012000F0FF
:1038100097B870B50C460546FFF7C4FF40EA0401AF
:103820002846BDE8704000F08BB82DE9FF5F002707
:103830000226DDF838A015468B468146B8460C288E
:1038400005D0B9F10E0F05D11227102001E077271E
:103850003020804647F08001022000F071F880217E
:103860000420FFF74BFF80210A20FFF7D2FF002141
:10387000012000F065F8002406E01BF80410092080
:1038800000F05EF8641CA4B2AC42F6D349460120B5
:1038900000F056F8B9F10C0F03D180210D20FFF78D
:1038A000B8FF4FF4FA650420FFF77CFF6D1E2D046E
:1038B00004462D0C04D0E00702D114EA080FF2D020
:1038C00080210D20FFF71AFF35B10620FFF76AFFB0
:1038D00010F01B0F04D0022604B03046BDE8F09F64
:1038E00000263C40E00700D00126B9F10C0FF3D1CF
:1038F0000A20FFF757FF04460C20FFF753FF10F094
:1039000007004FEAC40104D008390844AAF80000AF
:1039100001E0AAF8001024B1102C04D910240025CD
:1039200003E00124FBE7002506E00920FFF73AFF4A
:10393000039948556D1CADB2A542F6D3CCE7000003
:1039400070B50B4D0E460446002201212846FDF7B6
:10395000BAFE7E2000EA440000F00CF8304600F089
:1039600009F82846BDE8704001221146FDF7ABBEBC
:10397000000C01403EB50B4C8DF8040020688168B6
:103980008907FCD50A200090012302AA01A9054855
:10399000FEF7BEFB206881680906FCD49DF808008C
:1039A0003EBD000078010020FEE7000070B504462F
:1039B000FFF7F8FB1C481D498068884233D100227C
:1039C00013461046114600F0D9FA6420FDF774FD45
:1039D00020684FF0000201280AD0154900200B464C
:1039E00000F0CCFABDE870404FF4FA70FDF764BD0A
:1039F000104900200B4600F0C1FA4FF47A752846B2
:103A0000FDF75AFD0D20FFF727FC0B4900220B465E
:103A1000104600F0B3FA2846FDF74EFD0D20FFF7E3
:103A20002FFC0020206070BD080000201111010053
:103A300000004E4000005440000054C00907090E29
:103A4000002804DB00F1E02080F80014704700F04B
:103A50000F0000F1E02080F8141D704730380A286C
:103A600001D2012070470020704700000449002265
:103A70000B685A6209684A6A8242FCD370470000A8
:103A8000D00100200449002249680B685A62096885
:103A90004A6A8242FCD370470000002030B50446D9
:103AA00000200246084B0BE0012905D153F82250B3
:103AB000002D01DA401B02E053F822502844521C2A
:103AC000A242F1DB30BD00008400002070B5064644
:103AD0000A48C06868B1084600F059FD04460D4622
:103AE000304600F054FD22462B46BDE8704000F001
:103AF00045BABDE8704000F037BB00000800002068
:103B00008A68002A01DCFDF750B8521E8A604A68B4
:103B1000C0B2531C4B601070704710B5802000F08D
:103B200051F80024202000F06DF8641C462CF9DBCD
:103B300010BD10B53220FDF7BFFC302000F042F878
:103B40000520FDF7B9FC302000F03CF80120FDF71E
:103B5000B3FC302000F036F80A20FDF7ADFC202041
:103B600000F030F80A20FDF7A7FC282000F02AF822
:103B70000120FDF7A1FC082000F024F80120FDF74A
:103B80009BFC012000F01EF80120FDF795FC0120B0
:103B9000FDF792FC062000F015F80120FDF78CFCE3
:103BA000BDE810400C2000F00DB810B1012805D17F
:103BB00002E041F0800101E041F0C001C8B200F034
:103BC00001B800001CB500F0F00141F00C028DF8C6
:103BD000042041F0080100018DF8051040F00C01AF
:103BE0008DF8061040F008008DF807006420009062
:103BF000042301AA7E210248FDF734FE1CBD00000B
:103C0000240100201CB500F0F00141F00D028DF8F8
:103C1000042041F0090100018DF8051040F00D016C
:103C20008DF8061040F009008DF807006420009020
:103C3000042301AA7E210248FDF714FE1CBD0000EA
:103C40002401002010B5044602E0641CFFF7DAFFEF
:103C500020780028F9D110BD08B5FDF7D9FEFFF78F
:103C600094FBFEF74BFFFEF7EBFFFFF771F8FFF752
:103C7000A3F8B548B34900240160B449C0E9011470
:103C80004FF48041C0E9034144618461C46104622E
:103C9000FDF724FD08B172B6FEE7FEF7AFFFFFF7B0
:103CA00003F8FFF75BFDA849143901F1C000FFF7E5
:103CB000A1F9FFF73EFFFEF7C9FEA348AC30FEF7BF
:103CC000C7FBA1480021F430FEF740FD0021A048C9
:103CD000FEF73CFD9E4804219038FEF737FD042195
:103CE0009B48FEF733FD9B4E4FF4005700223946A8
:103CF0003046FDF7E8FCA046934CDFF85CA2974DF8
:103D00004FF0010B143C00BF0022C5F8048013469D
:103D100010461146CDF8008000F030F9FFF7D0F9D9
:103D2000E078002873D0C5F804B000BFFFF7C8F9E9
:103D3000012239463046FDF7C6FC217949B10022FF
:103D400039463046FDF7BFFC002251465346104627
:103D50000AE0A17A61B1002239463046FDF7B3FC92
:103D600000227F4B10467F4900F008F932205AE0CC
:103D7000E17A49B1002239463046FDF7A4FC002221
:103D8000784B10467649EFE7217A29B1002239466F
:103D90003046FDF798FC50E0A17949B10022394640
:103DA0003046FDF790FC00226F4B10466F49DBE771
:103DB000E17949B1002239463046FDF784FC002202
:103DC000534610466A49CFE7617949B10022394626
:103DD0003046FDF778FC0022654B10465146C3E79C
:103DE000217B41B1002239463046FDF76CFC0C20A6
:103DF000FFF746FA09E0A17B51B10022394630466F
:103E0000FDF761FC0C20FFF727FA0A200BE019E010
:103E1000217891B1002239463046FDF754FC68689C
:103E2000401E68601420FDF747FB6420FDF744FB4B
:103E3000686801283FF47AAF80E0002213461046FC
:103E4000114691E72078002878D00220DFF82491ED
:103E5000C5F80400FFF734F9FFF7A4F90122394649
:103E60003046FDF730FCAA684A4552D1FDF7CAFA40
:103E700028880A2844D24FF00D00FFF7EDF93E499B
:103E800000220B46104600F079F834485B30FFF70B
:103E900025FC30BB002213461046114600F06EF898
:103EA0003220FDF709FB0D20FFF7EAF92B495131CC
:103EB00001F10A00FFF72EFC30B128495631481DA8
:103EC000FFF728FC70B131E0CDF800B0FEF7CAFF73
:103ED0000520FDF7F1FA6846FFF768FD0098012814
:103EE000F4D023E002200090FEF7BCFF0520FDF790
:103EF000E3FA6846FFF75AFD00980228F4D015E06F
:103F000014D9002213461046114600F037F832202B
:103F10000AE0E17851B1002239463046FDF7D3FB83
:103F20006868801E68601420FDF7C6FAFEF79AFFE5
:103F30000A20FDF7C1FA686802288BD06420FDF7DB
:103F4000BBFAE1E60054004024010020A0860100F5
:103F5000A80200200010014000005440080000208A
:103F600000004940000049C0000054C000004EC09D
:103F7000000044401111010000003E402DE9F047CF
:103F800006462D481D4614460F4680460346DFF878
:103F9000A49000222046294600F024FB4FF00002A6
:103FA0003CD200232046294600F056FC4FF0000288
:103FB00005D24B462046294600F084FC0CE0002345
:103FC0002046294600F00EFB4FF0000209D24B4676
:103FD0002046294600F0B6F902460B4630463946DF
:103FE00018E000232046294600F068FA4FF000024E
:103FF0001346F3D03046394600F060FA17D100225C
:1040000013462046294600F059FA10D100221346E3
:1040100010461146BDE8F04700F010B84346204670
:10402000294600F04BFA02D100224346D6E7BDE80C
:10403000F087000000002440000059402DE9F05FA7
:10404000DFF8F8904FF0000814461D4606460F466C
:1040500009F1900ADFF8E8B04246434600F0C2FAA0
:104060000CD2D9F80010C1F834800022354B30460C
:10407000394600F0F3FA00F05DFA1FE00022134623
:104080003046394600F0E8FB4FF000020BD25B46A9
:104090003046394600F0E2FA00F04CFAD9F8002038
:1040A000506340460AE000233046394600F006FAE5
:1040B00007D1D9F800204046C2F83480D9F8001062
:1040C0008863002213462046294600F08BFA0ED260
:1040D000DAF800105646C1F834800022194B204609
:1040E000294600F0BBFA00F025FA316814E00022FE
:1040F00013462046294600F0AFFB4FF000020ED2D7
:104100005B462046294600F0A9FA00F013FADAF8D7
:104110000020506340460DE08863BDE8F09F002317
:104120002046294600F0CAF9F7D1DAF800204046C7
:10413000C2F83480DAF80010EEE700001802002020
:1041400000002440000024C0064A092102EB81033C
:1041500053F8043C42F82130491E0029F6DC106077
:1041600070470000840000200B4830B4826A0B497D
:10417000406A192A0ADA0A4C09E02346002002E0C4
:104180000B460020214630BCFFF758BF054C0128E4
:104190004FF00002F4D1F0E708000020000044C016
:1041A0000000544000004E4010B52E4C082857D255
:1041B000DFE800F0040B181F26323E4001220221E6
:1041C0002046FDF780FA002201E001220BE00421E5
:1041D0002046FDF778FA002208212046FDF773FA01
:1041E000002237E0002202212046FDF76CFA01226E
:1041F000EDE7002202212046FDF765FA012205E0E5
:10420000002202212046FDF75EFA0022042120460A
:10421000FDF759FA0122DFE7002202212046FDF7CF
:1042200052FA002204212046FDF74DFA01220CE04B
:10423000002200E0012202212046FDF744FA00227C
:1042400004212046FDF73FFA002208212046FDF711
:104250003AFA01222046BDE810401021FDF733BA9A
:1042600010BD00000008014043F6381191FBF0F04A
:1042700080B2FFF7FBBB0000264A10B50020936810
:1042800001460446B3F5887F23D009DC012B14D006
:10429000102B1AD0112B15D0B3F5807F2CD11BE039
:1042A000B3F5805F1ED0B3F5885F18D0B3F5803FBB
:1042B0001ED0B3F5883F1FD117E001214FF47A706B
:1042C000516219E04FF4FA6001E040F6B830012184
:1042D00012E04FF47A60FAE741F28830F7E741F2F2
:1042E0007070F4E741F65830F1E74FF4FA50EEE71A
:1042F00042F228300121546290FBF1F35363D16004
:1043000019B1946290FBF1F010BD936A5B1C93624B
:10431000F8E700000800002010B500290AD008784E
:10432000002807D005487844FCF78EFF002801D00C
:10433000002010BD0248784410BD0000C20C0000EF
:10434000BA0C000010B591EA030F48BF83F0004398
:1043500000F1C082841A71EB030C05D2121943EBF1
:104360000C03001B61EB0C01DFF824E14FEA115450
:10437000A4EB135C1EEA430F18BF9EEA445F73D0A0
:1043800023EA0E03DCF1200E21EA045143F48013EA
:1043900032D322FA0CFE10EB0E0023FA0CFE41EB96
:1043A0000E01CCF1200E03FA0EFE10EB0E0051F1BF
:1043B0000001B1F5801FCCF1200E32D201EB045187
:1043C00012FA0EF2BDE8104058BF7047401C38BFCB
:1043D0005FEA420218BF7047002814BF20F00100B6
:1043E00041F100014FEA410313F5001F38BF704748
:1043F000A1F1C04100F02ABA012A43EB0302ACF15B
:10440000200CDCF11F0E32BF4FF0000E23FA0CF32C
:1044100010EB030041EB0451B4EB115FD0D0A1EBE2
:10442000045101F5801149085FEA300001EB0451A5
:104430000ED350F1000038BF12FA0EFE08D1BDE8CD
:104440001040C9E7401C38BF5FEA4202CAD1C3E747
:10445000BDE810404FEA410313F5001F38BF704715
:10446000A1F1C04100F0F2B99EEA445F08D011EA20
:104470005E0FBDE8104004BF01F00041002070470E
:10448000BDE8104070B500F093F900BF64FBBE3E7C
:104490000000E0FF02494FF0000000F0D4BC00BF74
:1044A0000000F87F491058BFC1F140415B1058BF70
:1044B000C3F140438B42EFF30080704751EA030C95
:1044C00017D41CF5801F58BFBCF5801F00F1068073
:1044D000994218BF704708BF9042704707D711F53F
:1044E000801F58BF13F5801F19D499427047894225
:1044F00070471CF5801F08D5BCF5801FF7D58B428F
:1045000018BF704708BF824270474FF4001C1CEB75
:10451000410F38BF1CEB430F01D28B42704770B57F
:1045200000F046F9922449004FF000514FF08053BB
:10453000FFF7B8BF4FEA1153A3F58063D3F11E0311
:10454000A8BFD3F1200C08DB4FF0004242EAC122A1
:1045500052EA505232FA03F0704709420BD4102B42
:10456000C4BF0020704703F5787CBCF1FF3F05D045
:104570004FF0FF3070474FF00000704770B500F00B
:1045800017F900BF4992248000207047F0E710F02F
:10459000004248BF4042B0FA80F310FA03F10AD05B
:1045A000C3F11D0303F580634FEA415002EB035250
:1045B00002EBD12170474FF000007047B0FA80F352
:1045C00010FA03F10AD0C3F11D0303F580634FEA2B
:1045D00041504FEA035202EBD12170474FF00000E7
:1045E0007047000051EA030C17D41CF5801F58BF18
:1045F000BCF5801F00F10680994218BF704708BFC4
:104600009042704707D711F5801F58BF13F5801FE0
:1046100019D499427047894270471CF5801F08D50C
:10462000BCF5801FF7D58B4218BF704708BF824288
:1046300070474FF4001C1CEB410F38BF1CEB430FBD
:1046400001D28B42704770B500F0B2F89224490055
:104650004FF000514FF08053FFF724BFDFF848C1FF
:1046600070B51CEA111E1EBF1CEA13159EEA0C0F42
:1046700095EA0C0F00F06F8081EA030423EA4C13E3
:104680004EEAD47E21EA4C1141F4801143F48013A8
:10469000AE44A1FB024CA0FB0365AEF17F7E361950
:1046A00055EB0C05A1FB034C4CF10003A0FB021CD5
:1046B00016EB0C06654153F10003094218BF46F0A2
:1046C000010613F4007F0BD14FEA03314FEA0530A6
:1046D000340341EA155140EA16506FF003020AE034
:1046E0004FEAC3214FEAC520F40241EA555140EA9E
:1046F00056506FF0020202EB2E4201EB025585EAA2
:10470000CE710AD05FEA440C18BF24F0004450F187
:10471000000041F1000120EAD47040F2FE7C6245C5
:1047200000D270BDA84214BF4FF080444FF0404407
:10473000002E08BF0024BEF1806FA8BFA1F1C041C8
:10474000BDE8704080F282804FF0000001F1C0416E
:1047500001F0004170479EEA0C0F0CEA131518BFD8
:1047600095EA0C0F06D04FF0000081EA030E0EF020
:10477000004170BD00F01CF88900013E00F007B850
:1047800000F009B84FEA430C5FEA5C5C08D081EAAC
:10479000030100F05BB84FEA410C5FEA5C5CF6D1C4
:1047A0004FF00000014970470000FF070000F87F4C
:1047B0000EF1020E2EF0030E5EF8046B364205D4A5
:1047C000012A43EB030515F5001F12D8012841EB20
:1047D000010C1CF5001F0CD80ED14FEAD17C15F549
:1047E000001F0CEB4C0C0CF1020C08BF4CEBD37C03
:1047F00004E04FF0080C01E04FEAD37C0CEB4C05D1
:1048000026FA05F606F00706B6F1040C06D20EEB02
:10481000860CBDE870404CF0010C6047DFE80CF0FE
:10482000090B02024FF000414FF00000A1F50021FA
:1048300070BD19461046012851EB010418BFD4F58C
:10484000001484BF002001F0004170BD0808A0F5ED
:1048500000114FEA3101704753EA010C17D41CF5DF
:10486000801F58BFBCF5801F00F106808B4218BF27
:10487000704708BF8242704707D713F5801F58BFA3
:1048800011F5801F19D48B4270479B4270471CF56D
:10489000801F08D5BCF5801FF7D5994218BF704717
:1048A00008BF904270474FF4001C1CEB430F38BF09
:1048B0001CEB410F01D2994270470FB40CBC03BCF2
:1048C000FFF7C1BE10B591EA030F48BF83F0004364
:1048D0003FF540AD841A71EB030C07D212198CF02E
:1048E000004C43EB0C03001B61EB0C01DFF8A4E16F
:1048F0004FEA1154A4EB135C1EEA430F18BF9EEA63
:10490000445F00F0B08023EA6E03524221EA045172
:10491000C3EB6E0338BF5B1EDCF1200E25D322FAF9
:104920000CFE10EB0E0043FA0CFE41EB0E01CCF135
:10493000200E03FA0EFE10EB0E0051F10001CCF137
:10494000200E29D412FA0EF201EB0451BDE81040FA
:1049500058BF7047401C1CBFB2F1004F7047002881
:104960000CBF491C20F00100704712EB020E43EB14
:10497000030218BF4FF0010E4EEA4202ACF1200CC8
:10498000DCF11E0E54D943FA0CFE10EB0E0051F16F
:10499000FF31CCF11E0ED5D50EF1010E12FA0EFE2E
:1049A000404141EB010101EB445C5FEA5C5C10D9E2
:1049B00010EBDE7001EB045138BFBEF1004FBDE8D3
:1049C000104018BF704700280CBF491C20F00100A0
:1049D000704730D24FEAD42C11F5001124F4006452
:1049E0001BD0B1FA81F20B3AA41AA41ED2F1200313
:1049F000914030FA03F31943904001EBCC71002C45
:104A000001EB0451BDE81040A8BF704701F1C0415F
:104A10004FF0000001F000417047B0FA80F310FA47
:104A200003F100D110BDE41A173C4805C90AE4E7B8
:104A300001EB045110BD491001EB0451BDE81040D9
:104A40004FEA300002E04FF0000170474A0008BF13
:104A50000042F8D0B2F5001F28BF704701F00041B6
:104A60004FF0000070479EEA445F07D011EA5E0FE6
:104A7000BDE8104004BF002100207047BDE8104091
:104A800070B5FFF795FE00BF40DFF63E83F00041B2
:104A9000104670470000E0FF90EA010F48BF81F028
:104AA000004100F16281421A3CBF801A89184FEA26
:104AB000D0524FF07F4C1CEA410FA2EBD15318BFEC
:104AC0009CEA026F00F03B804FF0004C4CEA002063
:104AD0004CEA012121FA03FC10EB0C0C1ED202F16E
:104AE000FF325FEA1C2040EBC25038BF70471CF019
:104AF0007F0F4FEA400C18BFBCF17F4F38BF7047A3
:104B0000C3F12003994008BF20F00100BCF17F4FA2
:104B100038BF7047A0F1C04000F01BB94FEA3C001D
:104B2000000A40EBC25028BF1CF0FF0F4FEA400CB8
:104B3000E6D018BFBCF17F4F38BF7047EAE79CEA68
:104B4000026F05D010EA5C0F08BF00F0004070470C
:104B500010B500F0B8F800BF64FBBE3E41000B0E7C
:104B6000D3F19E0208D950F400034FEA032323FA3D
:104B700002F048BF4042704710B500F0A4F800BFF3
:104B800049922480002070476FF0004282EA2000A2
:104B90007047000010F0004148BF4042B0FA80F377
:104BA00010FA03F2C3F19D030BD051EAC35101EB9C
:104BB0001220530638BF704700F1010008BF20F0F3
:104BC000010070474FF47F0C1CEAD0121EBF1CEA94
:104BD000D11392EA0C0F93EA0C0F00F0478090EA91
:104BE000010F48BF42F480724FF0004C4CEA0020A5
:104BF0004CEA012102EB0302A0FB0113A2F5000223
:104C0000002918BF43F001035B0028BF4FEA3303BC
:104C100042EB22425FEA132C4CEBC2502EBFBCEB9E
:104C2000436FB2F57C0F70474FEA036CBCF1004F45
:104C300008BF20F00100B2F57C0F38BF70470BD5DC
:104C400082F0FF0212F5803FC8BF704700F1C040FC
:104C5000D8BF00F00040704700F5000C5FEA4C0C34
:104C600048BF7047B0F1C04000F073B890EA010F40
:104C70000CEAD11348BF42F48072624538BF6345E5
:104C800004D280EA010000F00040704710B500F047
:104C90001AF800BF8900013E00F007B800F009B81B
:104CA0005FEA410C5FEA1C6C08D080EA010000F06A
:104CB00050B85FEA400C5FEA1C6CF6D14FF0004040
:104CC000A0F5800070470EF1020E2EF0030E5EF884
:104CD000044B244204D44FEA4102B2F17F4F11D871
:104CE0004FEA4003B3F17F4F0CD80ED14FEAD07C8E
:104CF000B2F17F4F0CEB4C0C0CF1020C08BF4CEBEB
:104D0000D17C04E04FF0080C01E04FEAD17C0CEBC1
:104D10004C0324FA03F404F00704B4F1040C06D2A3
:104D20000EEB840CBDE810404CF0010C6047DFE84E
:104D30000CF0070802024FF00040A0F5800010BD03
:104D40000846420018BFD2F1807288BF00F00040D0
:104D500010BDFF2141EAD050C005704790EA010F15
:104D600048BF81F000413FF59EAE421A04D882F060
:104D70000042A0EB020011444FEAD0524FF07F4CAA
:104D80001CEA410FA2EBD15318BF9CEA026F4AD034
:104D90004FF0004C4CEA00204CEA012121FA03FCC0
:104DA000B0EB0C0C0FD412F0FE0F36D05FEA4C00C3
:104DB0001DD5001240EBC25038BF70471CF03F0FAA
:104DC00018BF70470BE0A2F101025FEA1C2040EB24
:104DD000C25038BF70471CF07F0F18BF7047C3F137
:104DE0002003994014BF401E20F001007047800846
:104DF0004FEA122308BF7047B0FA80FCA2EB0C0206
:104E0000CCF1280C60FA0CF093EA122F04BF00EBEF
:104E1000C25070474FEAC3707047130A5FEADC1054
:104E200008BF7047F6E79CEA026F04D010EA5C0FF7
:104E300008BF0020704710B5FFF745FF40DFF63E82
:104E400081F0004070470CF00F03092B08BF0820C9
:104E500000F059800A2B0BD0082B18BF704708BFF1
:104E60001CF0400F0AD04FF000004FF000017047D7
:104E70001CF0400F18BF4FF0004070471CF0100F9F
:104E800008D020F0704300F07F4242EAD3014FEA9D
:104E90004370704700F0604021F07F4242EA000218
:104EA00001F07F4040EA727070474FF0FF0C4CF405
:104EB000E06C1CEA11531CBF9CEA030C9445C2BF72
:104EC000DA4201EB02517047002B0DD0BCF1000F0C
:104ED0000FD0002A01F00041A4BF41F0E04141F0B1
:104EE0007F614FF00000704701F000414FF000007B
:104EF000704750EA01334FF09B0C18BF4CF0806CA8
:104F00007FF4C8AA70471CF4801F11D01CF4E02F56
:104F100003D06FEACC31490070474FF04050EFF3B7
:104F2000008222F0704242EA000282F30088704759
:104F30004FF0000070470000014200000000000038
:104F400001430001000000000144000103000000D3
:104F5000000000000142000000000000000000000E
:104F60000000000000010203040607080900000019
:104F70000001020304000000000000000000000027
:104F8000303132333435363738394142434445467F
:104F90004030580030313233343536373839616279
:104FA000636465664030780004000008000000007B
:104FB0000000000200010000103A7474003A74749A
:104FC000003A747400000000F8500008000000204F
:104FD00084000000280100087C51000884000020A3
:104FE000CC0900004401000810010000430000004B
:104FF000F8FFFFFF004040404040404040404141FA
:10500000414141404040404040404040404040409D
:105010004040404040050202020202020202020237
:105020000202020202202020202020202020200234
:1050300002020202020290909090909010101010C4
:105040001010101010101010101010101010101060
:1050500002020202020288888888888808080808F4
:1050600008080808080808080808080808080808C0
:1050700002020202400000000000000000000000E8
:105080000000000000000000000000000000000020
:105090000000000000000000000000000000000010
:1050A0000000000000000000000000000000000000
:1050B00000000000000000000000000000000000F0
:1050C00000000000000000000000000000000000E0
:1050D00000000000000000000000000000000000D0
:1050E00000000000000000000000000000000000C0
:1050F00000000000000000000000000000000000B0
:10510000000000000000000000000000000000009F
:105110006F12033B6F12833A000020410000000031
:10512000000000000000000000000000000000007F
:10513000000000000000000000000000000000006F
:105140000000000000000000000000007A92B4019E
:105150005D7A92B4015D7A92B4015D0000000000B6
:105160000100000010000000000000000024F40016
:0C51700000000000000000000000000033
:04000005080000ED02
:00000001FF
